{
  "contractName": "Coinflip",
  "abi": [
    {
      "inputs": [],
      "payable": true,
      "stateMutability": "payable",
      "type": "constructor"
    },
    {
      "anonymous": false,
      "inputs": [
        {
          "indexed": true,
          "internalType": "bytes32",
          "name": "queryId",
          "type": "bytes32"
        },
        {
          "indexed": false,
          "internalType": "string",
          "name": "description",
          "type": "string"
        },
        {
          "indexed": false,
          "internalType": "uint256",
          "name": "amount",
          "type": "uint256"
        }
      ],
      "name": "callbackReceived",
      "type": "event"
    },
    {
      "anonymous": false,
      "inputs": [
        {
          "indexed": false,
          "internalType": "string",
          "name": "description",
          "type": "string"
        }
      ],
      "name": "logNewProvableQuery",
      "type": "event"
    },
    {
      "anonymous": false,
      "inputs": [
        {
          "indexed": false,
          "internalType": "address",
          "name": "caller",
          "type": "address"
        },
        {
          "indexed": true,
          "internalType": "bytes32",
          "name": "queryId",
          "type": "bytes32"
        }
      ],
      "name": "sentQueryId",
      "type": "event"
    },
    {
      "anonymous": false,
      "inputs": [
        {
          "indexed": true,
          "internalType": "address",
          "name": "caller",
          "type": "address"
        },
        {
          "indexed": false,
          "internalType": "uint256",
          "name": "amount",
          "type": "uint256"
        }
      ],
      "name": "userWithdrawal",
      "type": "event"
    },
    {
      "constant": true,
      "inputs": [
        {
          "internalType": "bytes32",
          "name": "",
          "type": "bytes32"
        }
      ],
      "name": "afterWaiting",
      "outputs": [
        {
          "internalType": "address",
          "name": "",
          "type": "address"
        }
      ],
      "payable": false,
      "stateMutability": "view",
      "type": "function"
    },
    {
      "constant": true,
      "inputs": [],
      "name": "contractBalance",
      "outputs": [
        {
          "internalType": "uint256",
          "name": "",
          "type": "uint256"
        }
      ],
      "payable": false,
      "stateMutability": "view",
      "type": "function"
    },
    {
      "constant": true,
      "inputs": [],
      "name": "owner",
      "outputs": [
        {
          "internalType": "address payable",
          "name": "",
          "type": "address"
        }
      ],
      "payable": false,
      "stateMutability": "view",
      "type": "function"
    },
    {
      "constant": true,
      "inputs": [
        {
          "internalType": "address",
          "name": "",
          "type": "address"
        }
      ],
      "name": "playerWinnings",
      "outputs": [
        {
          "internalType": "uint256",
          "name": "",
          "type": "uint256"
        }
      ],
      "payable": false,
      "stateMutability": "view",
      "type": "function"
    },
    {
      "constant": true,
      "inputs": [
        {
          "internalType": "address",
          "name": "",
          "type": "address"
        }
      ],
      "name": "waiting",
      "outputs": [
        {
          "internalType": "address",
          "name": "playerAddress",
          "type": "address"
        },
        {
          "internalType": "uint256",
          "name": "betValue",
          "type": "uint256"
        },
        {
          "internalType": "uint256",
          "name": "headsTails",
          "type": "uint256"
        },
        {
          "internalType": "uint256",
          "name": "setRandomPrice",
          "type": "uint256"
        }
      ],
      "payable": false,
      "stateMutability": "view",
      "type": "function"
    },
    {
      "constant": false,
      "inputs": [
        {
          "internalType": "uint256",
          "name": "oneZero",
          "type": "uint256"
        }
      ],
      "name": "flip",
      "outputs": [],
      "payable": true,
      "stateMutability": "payable",
      "type": "function"
    },
    {
      "constant": false,
      "inputs": [
        {
          "internalType": "bytes32",
          "name": "_queryId",
          "type": "bytes32"
        },
        {
          "internalType": "string",
          "name": "_result",
          "type": "string"
        }
      ],
      "name": "__callback",
      "outputs": [],
      "payable": false,
      "stateMutability": "nonpayable",
      "type": "function"
    },
    {
      "constant": false,
      "inputs": [
        {
          "internalType": "bytes32",
          "name": "_myid",
          "type": "bytes32"
        },
        {
          "internalType": "string",
          "name": "_result",
          "type": "string"
        },
        {
          "internalType": "bytes",
          "name": "_proof",
          "type": "bytes"
        }
      ],
      "name": "__callback",
      "outputs": [],
      "payable": false,
      "stateMutability": "nonpayable",
      "type": "function"
    },
    {
      "constant": false,
      "inputs": [],
      "name": "withdrawUserWinnings",
      "outputs": [],
      "payable": false,
      "stateMutability": "nonpayable",
      "type": "function"
    },
    {
      "constant": true,
      "inputs": [],
      "name": "getWinningsBalance",
      "outputs": [
        {
          "internalType": "uint256",
          "name": "",
          "type": "uint256"
        }
      ],
      "payable": false,
      "stateMutability": "view",
      "type": "function"
    },
    {
      "constant": false,
      "inputs": [],
      "name": "fundContract",
      "outputs": [],
      "payable": true,
      "stateMutability": "payable",
      "type": "function"
    },
    {
      "constant": false,
      "inputs": [],
      "name": "fundWinnings",
      "outputs": [],
      "payable": true,
      "stateMutability": "payable",
      "type": "function"
    },
    {
      "constant": false,
      "inputs": [],
      "name": "withdrawAll",
      "outputs": [],
      "payable": false,
      "stateMutability": "nonpayable",
      "type": "function"
    }
  ],
  "bytecode": "0x608060405233600960006101000a81548173ffffffffffffffffffffffffffffffffffffffff021916908373ffffffffffffffffffffffffffffffffffffffff16021790555033600960006101000a81548173ffffffffffffffffffffffffffffffffffffffff021916908373ffffffffffffffffffffffffffffffffffffffff160217905550346008819055506135e58061009c6000396000f3fe6080604052600436106100c25760003560e01c80638b7afe2e1161007f578063b03063bd11610059578063b03063bd14610463578063b3e25412146104de578063bd097e21146104f5578063e437786d146104ff576100c2565b80638b7afe2e146103d75780638da5cb5b14610402578063a5ce849614610459576100c2565b8063221e885d146100c7578063252f4d81146100f557806327dc297e1461015a57806338bbfa501461022c578063741c0a0f14610395578063853828b6146103c0575b600080fd5b6100f3600480360360208110156100dd57600080fd5b81019080803590602001909291905050506105a5565b005b34801561010157600080fd5b506101446004803603602081101561011857600080fd5b81019080803573ffffffffffffffffffffffffffffffffffffffff16906020019092919050505061089f565b6040518082815260200191505060405180910390f35b34801561016657600080fd5b5061022a6004803603604081101561017d57600080fd5b8101908080359060200190929190803590602001906401000000008111156101a457600080fd5b8201836020820111156101b657600080fd5b803590602001918460018302840111640100000000831117156101d857600080fd5b91908080601f016020809104026020016040519081016040528093929190818152602001838380828437600081840152601f19601f8201169050808301925050505050505091929192905050506108b7565b005b34801561023857600080fd5b506103936004803603606081101561024f57600080fd5b81019080803590602001909291908035906020019064010000000081111561027657600080fd5b82018360208201111561028857600080fd5b803590602001918460018302840111640100000000831117156102aa57600080fd5b91908080601f016020809104026020016040519081016040528093929190818152602001838380828437600081840152601f19601f8201169050808301925050505050505091929192908035906020019064010000000081111561030d57600080fd5b82018360208201111561031f57600080fd5b8035906020019184600183028401116401000000008311171561034157600080fd5b91908080601f016020809104026020016040519081016040528093929190818152602001838380828437600081840152601f19601f820116905080830192505050505050509192919290505050610c16565b005b3480156103a157600080fd5b506103aa610c39565b6040518082815260200191505060405180910390f35b3480156103cc57600080fd5b506103d5610c80565b005b3480156103e357600080fd5b506103ec610d33565b6040518082815260200191505060405180910390f35b34801561040e57600080fd5b50610417610d39565b604051808273ffffffffffffffffffffffffffffffffffffffff1673ffffffffffffffffffffffffffffffffffffffff16815260200191505060405180910390f35b610461610d5f565b005b34801561046f57600080fd5b5061049c6004803603602081101561048657600080fd5b8101908080359060200190929190505050610e47565b604051808273ffffffffffffffffffffffffffffffffffffffff1673ffffffffffffffffffffffffffffffffffffffff16815260200191505060405180910390f35b3480156104ea57600080fd5b506104f3610e7a565b005b6104fd611050565b005b34801561050b57600080fd5b5061054e6004803603602081101561052257600080fd5b81019080803573ffffffffffffffffffffffffffffffffffffffff1690602001909291905050506110be565b604051808573ffffffffffffffffffffffffffffffffffffffff1673ffffffffffffffffffffffffffffffffffffffff16815260200184815260200183815260200182815260200194505050505060405180910390f35b346008541161061c576040517f08c379a000000000000000000000000000000000000000000000000000000000815260040180806020018281038252601a8152602001807f576520646f6e2774206861766520656e6f7567682066756e647300000000000081525060200191505060405180910390fd5b600062030d40905060006106646040518060400160405280600681526020017f52616e646f6d000000000000000000000000000000000000000000000000000081525061110e565b9050600080905060006106798260018661149f565b90507f94f2559b5e2b297de3db1587daf2352e872ada3dad01dab9ee3733592fa22ed360405180806020018281038252602681526020018061358b6026913960400191505060405180910390a1807fa19bd41ab5283f5176273e63c8e89f19b8ec4a5c787a6604f651632c71e0f29c33604051808273ffffffffffffffffffffffffffffffffffffffff1673ffffffffffffffffffffffffffffffffffffffff16815260200191505060405180910390a2336007600083815260200190815260200160002060006101000a81548173ffffffffffffffffffffffffffffffffffffffff021916908373ffffffffffffffffffffffffffffffffffffffff16021790555062030d403403600860008282540192505081905550610799613466565b33816000019073ffffffffffffffffffffffffffffffffffffffff16908173ffffffffffffffffffffffffffffffffffffffff168152505034816020018181525050858160400181815250508381606001818152505080600660003373ffffffffffffffffffffffffffffffffffffffff1673ffffffffffffffffffffffffffffffffffffffff16815260200190815260200160002060008201518160000160006101000a81548173ffffffffffffffffffffffffffffffffffffffff021916908373ffffffffffffffffffffffffffffffffffffffff160217905550602082015181600101556040820151816002015560608201518160030155905050505050505050565b60056020528060005260406000206000915090505481565b6108bf611a3a565b73ffffffffffffffffffffffffffffffffffffffff163373ffffffffffffffffffffffffffffffffffffffff16146108f657600080fd5b6000610977826040516020018082805190602001908083835b60208310610932578051825260208201915060208101905060208303925061090f565b6001836020036101000a0380198251168184511680821785525050505050509050019150506040516020818303038152906040528051906020012060001c6002611d57565b905060006007600085815260200190815260200160002060009054906101000a900473ffffffffffffffffffffffffffffffffffffffff1690506109b9613466565b600660008373ffffffffffffffffffffffffffffffffffffffff1673ffffffffffffffffffffffffffffffffffffffff1681526020019081526020016000206040518060800160405290816000820160009054906101000a900473ffffffffffffffffffffffffffffffffffffffff1673ffffffffffffffffffffffffffffffffffffffff1673ffffffffffffffffffffffffffffffffffffffff168152602001600182015481526020016002820154815260200160038201548152505090506000816020015114610c0f578060400151831415610b8457600062030d406002836020015102039050816060015182602001510160086000828254039250508190555080600560008573ffffffffffffffffffffffffffffffffffffffff1673ffffffffffffffffffffffffffffffffffffffff16815260200190815260200160002060008282540192505081905550857f04cab3657f64d71f15c1887100165dadd28bc26d3a77255585ac5e9f7dedab0d83602001516040518080602001838152602001828103825260068152602001807f57696e6e657200000000000000000000000000000000000000000000000000008152506020019250505060405180910390a250610c0e565b8060600151600860008282540392505081905550847f04cab3657f64d71f15c1887100165dadd28bc26d3a77255585ac5e9f7dedab0d82602001516040518080602001838152602001828103825260058152602001807f4c6f7365720000000000000000000000000000000000000000000000000000008152506020019250505060405180910390a25b5b5050505050565b6000801b600360008060001b815260200190815260200160002081905550505050565b6000600560003373ffffffffffffffffffffffffffffffffffffffff1673ffffffffffffffffffffffffffffffffffffffff16815260200190815260200160002054905090565b600960009054906101000a900473ffffffffffffffffffffffffffffffffffffffff1673ffffffffffffffffffffffffffffffffffffffff163373ffffffffffffffffffffffffffffffffffffffff1614610cda57600080fd5b6000600854905060006008819055503373ffffffffffffffffffffffffffffffffffffffff166108fc829081150290604051600060405180830381858888f19350505050158015610d2f573d6000803e3d6000fd5b5050565b60085481565b600960009054906101000a900473ffffffffffffffffffffffffffffffffffffffff1681565b600960009054906101000a900473ffffffffffffffffffffffffffffffffffffffff1673ffffffffffffffffffffffffffffffffffffffff163373ffffffffffffffffffffffffffffffffffffffff1614610db957600080fd5b610e02600560003373ffffffffffffffffffffffffffffffffffffffff1673ffffffffffffffffffffffffffffffffffffffff1681526020019081526020016000205434611de1565b600560003373ffffffffffffffffffffffffffffffffffffffff1673ffffffffffffffffffffffffffffffffffffffff16815260200190815260200160002081905550565b60076020528060005260406000206000915054906101000a900473ffffffffffffffffffffffffffffffffffffffff1681565b6000600560003373ffffffffffffffffffffffffffffffffffffffff1673ffffffffffffffffffffffffffffffffffffffff1681526020019081526020016000205411610f2f576040517f08c379a00000000000000000000000000000000000000000000000000000000081526004018080602001828103825260148152602001807f4e6f2066756e647320746f20776974686472617700000000000000000000000081525060200191505060405180910390fd5b6000600560003373ffffffffffffffffffffffffffffffffffffffff1673ffffffffffffffffffffffffffffffffffffffff1681526020019081526020016000205490506000600560003373ffffffffffffffffffffffffffffffffffffffff1673ffffffffffffffffffffffffffffffffffffffff168152602001908152602001600020819055503373ffffffffffffffffffffffffffffffffffffffff166108fc829081150290604051600060405180830381858888f19350505050158015610ffe573d6000803e3d6000fd5b503373ffffffffffffffffffffffffffffffffffffffff167f42b2a4ad2d4bdf57e819ccd3c6ce6d0a8d6d20b5d3dbf94ef2b05c42f523c610826040518082815260200191505060405180910390a250565b600960009054906101000a900473ffffffffffffffffffffffffffffffffffffffff1673ffffffffffffffffffffffffffffffffffffffff163373ffffffffffffffffffffffffffffffffffffffff16146110aa57600080fd5b6110b660085434611de1565b600881905550565b60066020528060005260406000206000915090508060000160009054906101000a900473ffffffffffffffffffffffffffffffffffffffff16908060010154908060020154908060030154905084565b60008073ffffffffffffffffffffffffffffffffffffffff16600160009054906101000a900473ffffffffffffffffffffffffffffffffffffffff1673ffffffffffffffffffffffffffffffffffffffff16148061119657506000611194600160009054906101000a900473ffffffffffffffffffffffffffffffffffffffff16611e69565b145b156111a7576111a56000611e74565b505b600160009054906101000a900473ffffffffffffffffffffffffffffffffffffffff1673ffffffffffffffffffffffffffffffffffffffff166338cc48316040518163ffffffff1660e01b8152600401602060405180830381600087803b15801561121157600080fd5b505af1158015611225573d6000803e3d6000fd5b505050506040513d602081101561123b57600080fd5b810190808051906020019092919050505073ffffffffffffffffffffffffffffffffffffffff166000809054906101000a900473ffffffffffffffffffffffffffffffffffffffff1673ffffffffffffffffffffffffffffffffffffffff161461138457600160009054906101000a900473ffffffffffffffffffffffffffffffffffffffff1673ffffffffffffffffffffffffffffffffffffffff166338cc48316040518163ffffffff1660e01b8152600401602060405180830381600087803b15801561130957600080fd5b505af115801561131d573d6000803e3d6000fd5b505050506040513d602081101561133357600080fd5b81019080805190602001909291905050506000806101000a81548173ffffffffffffffffffffffffffffffffffffffff021916908373ffffffffffffffffffffffffffffffffffffffff1602179055505b6000809054906101000a900473ffffffffffffffffffffffffffffffffffffffff1673ffffffffffffffffffffffffffffffffffffffff1663524f3889836040518263ffffffff1660e01b81526004018080602001828103825283818151815260200191508051906020019080838360005b838110156114115780820151818401526020810190506113f6565b50505050905090810190601f16801561143e5780820380516001836020036101000a031916815260200191505b5092505050602060405180830381600087803b15801561145d57600080fd5b505af1158015611471573d6000803e3d6000fd5b505050506040513d602081101561148757600080fd5b81019080805190602001909291905050509050919050565b600080831180156114b1575060208311155b6114ba57600080fd5b600a84029350606060016040519080825280601f01601f1916602001820160405280156114f65781602001600182028038833980820191505090505b5090508360f81b8160008151811061150a57fe5b60200101907effffffffffffffffffffffffffffffffffffffffffffffffffffffffffffff1916908160001a905350606060206040519080825280601f01601f19166020018201604052801561156f5781602001600182028038833980820191505090505b509050606060206040519080825280601f01601f1916602001820160405280156115a85781602001600182028038833980820191505090505b50905060006115b5611e85565b905060208352424118600143034018602084015260208252806020830152606060206040519080825280601f01601f1916602001820160405280156116095781602001600182028038833980820191505090505b509050886020820152606060086040519080825280601f01601f1916602001820160405280156116485781602001600182028038833980820191505090505b50905061165b82601860088460006121a2565b506116646134a4565b604051806080016040528087815260200188815260200186815260200184815250905060006116c96040518060400160405280600681526020017f72616e646f6d0000000000000000000000000000000000000000000000000000815250838c612201565b9050606060086040519080825280601f01601f1916602001820160405280156117015781602001600182028038833980820191505090505b50905060208401517f0100000000000000000000000000000000000000000000000000000000000000810460278301537e01000000000000000000000000000000000000000000000000000000000000810460268301537d010000000000000000000000000000000000000000000000000000000000810460258301537c0100000000000000000000000000000000000000000000000000000000810460248301537b01000000000000000000000000000000000000000000000000000000810460238301537a010000000000000000000000000000000000000000000000000000810460228301537901000000000000000000000000000000000000000000000000008104602183015378010000000000000000000000000000000000000000000000008104602083015350611a2782828560016004811061184057fe5b602002015160028760006004811061185457fe5b60200201516040518082805190602001908083835b6020831061188c5780518252602082019150602081019050602083039250611869565b6001836020036101000a038019825116818451168082178552505050505050905001915050602060405180830381855afa1580156118ce573d6000803e3d6000fd5b5050506040513d60208110156118e357600080fd5b81019080805190602001909291905050508760026004811061190157fe5b60200201516040516020018085805190602001908083835b6020831061193c5780518252602082019150602081019050602083039250611919565b6001836020036101000a03801982511681845116808217855250505050505090500184805190602001908083835b6020831061198d578051825260208201915060208101905060208303925061196a565b6001836020036101000a03801982511681845116808217855250505050505090500183815260200182805190602001908083835b602083106119e457805182526020820191506020810190506020830392506119c1565b6001836020036101000a0380198251168184511680821785525050505050509050019450505050506040516020818303038152906040528051906020012061256e565b8199505050505050505050509392505050565b60008073ffffffffffffffffffffffffffffffffffffffff16600160009054906101000a900473ffffffffffffffffffffffffffffffffffffffff1673ffffffffffffffffffffffffffffffffffffffff161480611ac257506000611ac0600160009054906101000a900473ffffffffffffffffffffffffffffffffffffffff16611e69565b145b15611ad357611ad16000611e74565b505b600160009054906101000a900473ffffffffffffffffffffffffffffffffffffffff1673ffffffffffffffffffffffffffffffffffffffff166338cc48316040518163ffffffff1660e01b8152600401602060405180830381600087803b158015611b3d57600080fd5b505af1158015611b51573d6000803e3d6000fd5b505050506040513d6020811015611b6757600080fd5b810190808051906020019092919050505073ffffffffffffffffffffffffffffffffffffffff166000809054906101000a900473ffffffffffffffffffffffffffffffffffffffff1673ffffffffffffffffffffffffffffffffffffffff1614611cb057600160009054906101000a900473ffffffffffffffffffffffffffffffffffffffff1673ffffffffffffffffffffffffffffffffffffffff166338cc48316040518163ffffffff1660e01b8152600401602060405180830381600087803b158015611c3557600080fd5b505af1158015611c49573d6000803e3d6000fd5b505050506040513d6020811015611c5f57600080fd5b81019080805190602001909291905050506000806101000a81548173ffffffffffffffffffffffffffffffffffffffff021916908373ffffffffffffffffffffffffffffffffffffffff1602179055505b6000809054906101000a900473ffffffffffffffffffffffffffffffffffffffff1673ffffffffffffffffffffffffffffffffffffffff1663c281d19e6040518163ffffffff1660e01b815260040160206040518083038186803b158015611d1757600080fd5b505afa158015611d2b573d6000803e3d6000fd5b505050506040513d6020811015611d4157600080fd5b8101908080519060200190929190505050905090565b600080821415611dcf576040517f08c379a00000000000000000000000000000000000000000000000000000000081526004018080602001828103825260188152602001807f536166654d6174683a206d6f64756c6f206279207a65726f000000000000000081525060200191505060405180910390fd5b818381611dd857fe5b06905092915050565b600080828401905083811015611e5f576040517f08c379a000000000000000000000000000000000000000000000000000000000815260040180806020018281038252601b8152602001807f536166654d6174683a206164646974696f6e206f766572666c6f77000000000081525060200191505060405180910390fd5b8091505092915050565b6000813b9050919050565b6000611e7e61258a565b9050919050565b60008073ffffffffffffffffffffffffffffffffffffffff16600160009054906101000a900473ffffffffffffffffffffffffffffffffffffffff1673ffffffffffffffffffffffffffffffffffffffff161480611f0d57506000611f0b600160009054906101000a900473ffffffffffffffffffffffffffffffffffffffff16611e69565b145b15611f1e57611f1c6000611e74565b505b600160009054906101000a900473ffffffffffffffffffffffffffffffffffffffff1673ffffffffffffffffffffffffffffffffffffffff166338cc48316040518163ffffffff1660e01b8152600401602060405180830381600087803b158015611f8857600080fd5b505af1158015611f9c573d6000803e3d6000fd5b505050506040513d6020811015611fb257600080fd5b810190808051906020019092919050505073ffffffffffffffffffffffffffffffffffffffff166000809054906101000a900473ffffffffffffffffffffffffffffffffffffffff1673ffffffffffffffffffffffffffffffffffffffff16146120fb57600160009054906101000a900473ffffffffffffffffffffffffffffffffffffffff1673ffffffffffffffffffffffffffffffffffffffff166338cc48316040518163ffffffff1660e01b8152600401602060405180830381600087803b15801561208057600080fd5b505af1158015612094573d6000803e3d6000fd5b505050506040513d60208110156120aa57600080fd5b81019080805190602001909291905050506000806101000a81548173ffffffffffffffffffffffffffffffffffffffff021916908373ffffffffffffffffffffffffffffffffffffffff1602179055505b6000809054906101000a900473ffffffffffffffffffffffffffffffffffffffff1673ffffffffffffffffffffffffffffffffffffffff1663abaa5f3e6040518163ffffffff1660e01b815260040160206040518083038186803b15801561216257600080fd5b505afa158015612176573d6000803e3d6000fd5b505050506040513d602081101561218c57600080fd5b8101908080519060200190929190505050905090565b60606000828501905080845110156121b957600080fd5b600086602001905060008460200190505b8688602001018210156121f257818901518082880152506020820191506020810190506121ca565b85935050505095945050505050565b60008073ffffffffffffffffffffffffffffffffffffffff16600160009054906101000a900473ffffffffffffffffffffffffffffffffffffffff1673ffffffffffffffffffffffffffffffffffffffff16148061228957506000612287600160009054906101000a900473ffffffffffffffffffffffffffffffffffffffff16611e69565b145b1561229a576122986000611e74565b505b600160009054906101000a900473ffffffffffffffffffffffffffffffffffffffff1673ffffffffffffffffffffffffffffffffffffffff166338cc48316040518163ffffffff1660e01b8152600401602060405180830381600087803b15801561230457600080fd5b505af1158015612318573d6000803e3d6000fd5b505050506040513d602081101561232e57600080fd5b810190808051906020019092919050505073ffffffffffffffffffffffffffffffffffffffff166000809054906101000a900473ffffffffffffffffffffffffffffffffffffffff1673ffffffffffffffffffffffffffffffffffffffff161461247757600160009054906101000a900473ffffffffffffffffffffffffffffffffffffffff1673ffffffffffffffffffffffffffffffffffffffff166338cc48316040518163ffffffff1660e01b8152600401602060405180830381600087803b1580156123fc57600080fd5b505af1158015612410573d6000803e3d6000fd5b505050506040513d602081101561242657600080fd5b81019080805190602001909291905050506000806101000a81548173ffffffffffffffffffffffffffffffffffffffff021916908373ffffffffffffffffffffffffffffffffffffffff1602179055505b606060046040519080825280602002602001820160405280156124ae57816020015b60608152602001906001900390816124995790505b509050836000600481106124be57fe5b6020020151816000815181106124d057fe5b6020026020010181905250836001600481106124e857fe5b6020020151816001815181106124fa57fe5b60200260200101819052508360026004811061251257fe5b60200201518160028151811061252457fe5b60200260200101819052508360036004811061253c57fe5b60200201518160038151811061254e57fe5b6020026020010181905250612564858285612ae1565b9150509392505050565b8060036000848152602001908152602001600020819055505050565b6000806125aa731d3b2638a7cc9f2cb3d298a3da7a90b67e5506ed611e69565b111561264c57731d3b2638a7cc9f2cb3d298a3da7a90b67e5506ed600160006101000a81548173ffffffffffffffffffffffffffffffffffffffff021916908373ffffffffffffffffffffffffffffffffffffffff1602179055506126436040518060400160405280600b81526020017f6574685f6d61696e6e6574000000000000000000000000000000000000000000815250613043565b60019050612ade565b600061266b73c03a2615d5efaf5f49f60b7bb6583eaec212fdf1611e69565b111561270d5773c03a2615d5efaf5f49f60b7bb6583eaec212fdf1600160006101000a81548173ffffffffffffffffffffffffffffffffffffffff021916908373ffffffffffffffffffffffffffffffffffffffff1602179055506127046040518060400160405280600c81526020017f6574685f726f707374656e330000000000000000000000000000000000000000815250613043565b60019050612ade565b600061272c73b7a07bcf2ba2f2703b24c0691b5278999c59ac7e611e69565b11156127ce5773b7a07bcf2ba2f2703b24c0691b5278999c59ac7e600160006101000a81548173ffffffffffffffffffffffffffffffffffffffff021916908373ffffffffffffffffffffffffffffffffffffffff1602179055506127c56040518060400160405280600981526020017f6574685f6b6f76616e0000000000000000000000000000000000000000000000815250613043565b60019050612ade565b60006127ed73146500cfd35b22e4a392fe0adc06de1a1368ed48611e69565b111561288f5773146500cfd35b22e4a392fe0adc06de1a1368ed48600160006101000a81548173ffffffffffffffffffffffffffffffffffffffff021916908373ffffffffffffffffffffffffffffffffffffffff1602179055506128866040518060400160405280600b81526020017f6574685f72696e6b656279000000000000000000000000000000000000000000815250613043565b60019050612ade565b60006128ae73a2998efd205fb9d4b4963afb70778d6354ad3a41611e69565b11156129505773a2998efd205fb9d4b4963afb70778d6354ad3a41600160006101000a81548173ffffffffffffffffffffffffffffffffffffffff021916908373ffffffffffffffffffffffffffffffffffffffff1602179055506129476040518060400160405280600a81526020017f6574685f676f65726c6900000000000000000000000000000000000000000000815250613043565b60019050612ade565b600061296f736f485c8bf6fc43ea212e93bbf8ce046c7f1cb475611e69565b11156129d357736f485c8bf6fc43ea212e93bbf8ce046c7f1cb475600160006101000a81548173ffffffffffffffffffffffffffffffffffffffff021916908373ffffffffffffffffffffffffffffffffffffffff16021790555060019050612ade565b60006129f27320e12a1f859b3feae5fb2a0a32c18f5a65555bbf611e69565b1115612a56577320e12a1f859b3feae5fb2a0a32c18f5a65555bbf600160006101000a81548173ffffffffffffffffffffffffffffffffffffffff021916908373ffffffffffffffffffffffffffffffffffffffff16021790555060019050612ade565b6000612a757351efaf4c8b3c9afbd5ab9f4bbc82784ab6ef8faa611e69565b1115612ad9577351efaf4c8b3c9afbd5ab9f4bbc82784ab6ef8faa600160006101000a81548173ffffffffffffffffffffffffffffffffffffffff021916908373ffffffffffffffffffffffffffffffffffffffff16021790555060019050612ade565b600090505b90565b60008073ffffffffffffffffffffffffffffffffffffffff16600160009054906101000a900473ffffffffffffffffffffffffffffffffffffffff1673ffffffffffffffffffffffffffffffffffffffff161480612b6957506000612b67600160009054906101000a900473ffffffffffffffffffffffffffffffffffffffff16611e69565b145b15612b7a57612b786000611e74565b505b600160009054906101000a900473ffffffffffffffffffffffffffffffffffffffff1673ffffffffffffffffffffffffffffffffffffffff166338cc48316040518163ffffffff1660e01b8152600401602060405180830381600087803b158015612be457600080fd5b505af1158015612bf8573d6000803e3d6000fd5b505050506040513d6020811015612c0e57600080fd5b810190808051906020019092919050505073ffffffffffffffffffffffffffffffffffffffff166000809054906101000a900473ffffffffffffffffffffffffffffffffffffffff1673ffffffffffffffffffffffffffffffffffffffff1614612d5757600160009054906101000a900473ffffffffffffffffffffffffffffffffffffffff1673ffffffffffffffffffffffffffffffffffffffff166338cc48316040518163ffffffff1660e01b8152600401602060405180830381600087803b158015612cdc57600080fd5b505af1158015612cf0573d6000803e3d6000fd5b505050506040513d6020811015612d0657600080fd5b81019080805190602001909291905050506000806101000a81548173ffffffffffffffffffffffffffffffffffffffff021916908373ffffffffffffffffffffffffffffffffffffffff1602179055505b60008060009054906101000a900473ffffffffffffffffffffffffffffffffffffffff1673ffffffffffffffffffffffffffffffffffffffff16632ef3accc86856040518363ffffffff1660e01b81526004018080602001838152602001828103825284818151815260200191508051906020019080838360005b83811015612ded578082015181840152602081019050612dd2565b50505050905090810190601f168015612e1a5780820380516001836020036101000a031916815260200191505b509350505050602060405180830381600087803b158015612e3a57600080fd5b505af1158015612e4e573d6000803e3d6000fd5b505050506040513d6020811015612e6457600080fd5b81019080805190602001909291905050509050823a02670de0b6b3a764000001811115612e97576000801b91505061303c565b6060612ea28561305d565b90506000809054906101000a900473ffffffffffffffffffffffffffffffffffffffff1673ffffffffffffffffffffffffffffffffffffffff1663c55c1cb68360008985896040518663ffffffff1660e01b8152600401808581526020018060200180602001848152602001838103835286818151815260200191508051906020019080838360005b83811015612f46578082015181840152602081019050612f2b565b50505050905090810190601f168015612f735780820380516001836020036101000a031916815260200191505b50838103825285818151815260200191508051906020019080838360005b83811015612fac578082015181840152602081019050612f91565b50505050905090810190601f168015612fd95780820380516001836020036101000a031916815260200191505b5096505050505050506020604051808303818588803b158015612ffb57600080fd5b505af115801561300f573d6000803e3d6000fd5b50505050506040513d602081101561302657600080fd5b8101908080519060200190929190505050925050505b9392505050565b80600290805190602001906130599291906134cb565b5050565b60606130676130dd565b61306f61354b565b61307b816104006130e9565b61308481613133565b60008090505b83518110156130c6576130b98482815181106130a257fe5b60200260200101518361314190919063ffffffff16565b808060010191505061308a565b506130d081613166565b8060000151915050919050565b60405180590338823950565b60008190506000602082816130fa57fe5b0614613113576020818161310a57fe5b06602003810190505b808360200181815250506040518084526000815281810160405250505050565b61313e816004613174565b50565b61314e8260028351613195565b61316181836132d590919063ffffffff16565b505050565b613171816007613174565b50565b613191601f60058360ff16901b178361338090919063ffffffff16565b5050565b601781116131c1576131bc8160058460ff16901b60ff16178461338090919063ffffffff16565b6132d0565b60ff8111613202576131e6601860058460ff16901b178461338090919063ffffffff16565b6131fc816001856133c09092919063ffffffff16565b506132cf565b61ffff811161324457613228601960058460ff16901b178461338090919063ffffffff16565b61323e816002856133c09092919063ffffffff16565b506132ce565b63ffffffff81116132885761326c601a60058460ff16901b178461338090919063ffffffff16565b613282816004856133c09092919063ffffffff16565b506132cd565b67ffffffffffffffff81116132cc576132b4601b60058460ff16901b178461338090919063ffffffff16565b6132ca816008856133c09092919063ffffffff16565b505b5b5b5b5b505050565b6132dd61354b565b8260200151836000015151835101111561330d5761330c83600261330686602001518651613427565b02613443565b5b60008060008451905085518051602081830101945086518101825260208701935050505b602081106133545781518352602083019250602082019150602081039050613331565b60006001826020036101000a039050801983511681855116818117865250508694505050505092915050565b816020015160018360000151510111156133a6576133a5826002846020015102613443565b5b815180516020818301018381536001820183525050505050565b6133c861354b565b8360200151846000015151830111156133f6576133f58460026133ef876020015186613427565b02613443565b5b60006001836101000a0390508451805184818301018684198251161781528582018352505050849150509392505050565b6000818311156134395782905061343d565b8190505b92915050565b60608260000151905061345683836130e9565b61346083826132d5565b50505050565b6040518060800160405280600073ffffffffffffffffffffffffffffffffffffffff1681526020016000815260200160008152602001600081525090565b60405180608001604052806004905b60608152602001906001900390816134b35790505090565b828054600181600116156101000203166002900490600052602060002090601f016020900481019282601f1061350c57805160ff191683800117855561353a565b8280016001018555821561353a579182015b8281111561353957825182559160200191906001019061351e565b5b5090506135479190613565565b5090565b604051806040016040528060608152602001600081525090565b61358791905b8082111561358357600081600090555060010161356b565b5090565b9056fe4d6573736167652073656e742e2057616974696e6720666f7220616e20616e737765722e2e2ea265627a7a723158202eec38215d297fecb3ec55dc1f6ab609d0e2effc564794cae4a2cd1d8730c5a664736f6c63430005100032",
  "source": "pragma solidity =0.5.16;\r\n\r\nimport './provableAPI_0.5.sol';\r\nimport './SafeMath.sol';\r\n\r\ncontract Coinflip is usingProvable {\r\n    using SafeMath for uint;\r\n    \r\n    struct Bet {\r\n        address playerAddress;\r\n        uint betValue;\r\n        uint headsTails;\r\n        uint setRandomPrice;\r\n    }\r\n    \r\n    mapping(address => uint) public playerWinnings;\r\n    mapping (address => Bet) public waiting;\r\n    mapping (bytes32 => address) public afterWaiting;\r\n    \r\n    event logNewProvableQuery(string description);\r\n    event sentQueryId(address caller, bytes32 indexed queryId);\r\n    event callbackReceived(bytes32 indexed queryId, string description, uint256 amount);\r\n    event userWithdrawal(address indexed caller, uint256 amount);\r\n\r\n    uint public contractBalance;\r\n    uint256 constant NUM_RANDOM_BYTES_REQUESTED = 1;\r\n    \r\n   address payable public owner = msg.sender;\r\n\r\n    constructor() public payable{\r\n        owner = msg.sender;\r\n        contractBalance = msg.value;\r\n    }\r\n    \r\n    modifier onlyOwner() {\r\n        require(msg.sender == owner);\r\n        _;\r\n    }\r\n    \r\nfunction flip(uint256 oneZero) public payable {\r\n        require(contractBalance > msg.value, \"We don't have enough funds\");\r\n            uint256 GAS_FOR_CALLBACK = 200000;\r\n\r\n\r\n        //get price from provable\r\n        uint256 randomPrice = provable_getPrice(\"Random\");\r\n        \r\n        //Calling provable library function\r\n        uint256 QUERY_EXECUTION_DELAY = 0;\r\n        bytes32 queryId = provable_newRandomDSQuery(\r\n            QUERY_EXECUTION_DELAY,\r\n            NUM_RANDOM_BYTES_REQUESTED,\r\n            GAS_FOR_CALLBACK\r\n            );\r\n        emit logNewProvableQuery(\"Message sent. Waiting for an answer...\");\r\n        emit sentQueryId(msg.sender, queryId);\r\n\r\n        afterWaiting[queryId] = msg.sender;\r\n        \r\n        contractBalance += (msg.value - 200000 wei);\r\n\r\n\r\n        //Adding user to mapping with address, bet, and queryID\r\n        Bet memory newBetter;\r\n        newBetter.playerAddress = msg.sender;\r\n        //subtract price for callback\r\n        newBetter.betValue = msg.value; \r\n        newBetter.headsTails = oneZero;\r\n        newBetter.setRandomPrice = randomPrice;\r\n        \r\n        waiting[msg.sender] = newBetter;\r\n    }\r\n    \r\n    function __callback(bytes32 _queryId, string memory _result) public {\r\n        require(msg.sender == provable_cbAddress());\r\n        \r\n        uint256 flipResult = SafeMath.mod(uint256(keccak256(abi.encodePacked(_result))), 2);\r\n\r\n        //linking new mapping with new struct\r\n        address _player = afterWaiting[_queryId];\r\n        \r\n        Bet memory postBet = waiting[_player];\r\n\r\n    \r\n         if(postBet.betValue != 0) {\r\n            if(flipResult == postBet.headsTails){\r\n                //winner\r\n                // uint winAmount = SafeMath.sub(SafeMath.mul(postBet.betValue, 2), SafeMath.add(postBet.setRandomPrice, tx.gasprice)); \r\n                //contractBalance = SafeMath.sub(contractBalance, SafeMath.add(postBet.betValue, tx.gasprice));\r\n                //playerWinnings[_player] = SafeMath.add(playerWinnings[_player], winAmount);\r\n\r\n                uint winAmount = (postBet.betValue * 2) - 200000 wei;\r\n                contractBalance -= (postBet.betValue + postBet.setRandomPrice);\r\n                playerWinnings[_player] += winAmount;\r\n                emit callbackReceived(_queryId, \"Winner\", postBet.betValue);\r\n            } else {\r\n                //loser\r\n                //contractBalance = SafeMath.sub(SafeMath.add(contractBalance, postBet.betValue), (SafeMath.add(postBet.setRandomPrice, tx.gasprice)));\r\n                contractBalance -= postBet.setRandomPrice;\r\n                emit callbackReceived(_queryId, \"Loser\", postBet.betValue);\r\n            }\r\n        }\r\n    }\r\n    \r\n    \r\n    function withdrawUserWinnings() public {\r\n        require(playerWinnings[msg.sender] > 0, \"No funds to withdraw\");\r\n        uint toTransfer = playerWinnings[msg.sender];\r\n        playerWinnings[msg.sender] = 0;\r\n        msg.sender.transfer(toTransfer);\r\n        emit userWithdrawal(msg.sender, toTransfer);\r\n    }\r\n    \r\n    function getWinningsBalance() public view returns(uint){\r\n        return playerWinnings[msg.sender];\r\n    }\r\n    \r\n    //Owner functions\r\n    \r\n    function fundContract() public payable onlyOwner {\r\n        contractBalance = SafeMath.add(contractBalance, msg.value);\r\n    }\r\n    \r\n    function fundWinnings() public payable onlyOwner {\r\n        playerWinnings[msg.sender] = SafeMath.add(playerWinnings[msg.sender], msg.value);\r\n    }\r\n    \r\n    function withdrawAll() public onlyOwner {\r\n        uint toTransfer = contractBalance;\r\n        contractBalance = 0;\r\n        msg.sender.transfer(toTransfer);\r\n    }\r\n\r\n}",
  "sourcePath": "C:/Users/15183/Documents/dapp-projects/project-coinflip-v-6/contracts/Coinflip.sol",
  "compiler": {
    "name": "solc",
    "version": "0.5.16+commit.9c3226ce.Emscripten.clang"
  },
  "schemaVersion": "3.3.1",
  "updatedAt": "2020-12-18T19:04:09.529Z",
  "networkType": "ethereum",
  "devdoc": {
    "methods": {}
  },
  "userdoc": {
    "methods": {}
  }
}