{
  "contractName": "Coinflip",
  "abi": [
    {
      "inputs": [],
      "payable": true,
      "stateMutability": "payable",
      "type": "constructor"
    },
    {
      "anonymous": false,
      "inputs": [
        {
          "indexed": true,
          "internalType": "bytes32",
          "name": "queryId",
          "type": "bytes32"
        },
        {
          "indexed": false,
          "internalType": "string",
          "name": "description",
          "type": "string"
        },
        {
          "indexed": false,
          "internalType": "uint256",
          "name": "amount",
          "type": "uint256"
        }
      ],
      "name": "callbackReceived",
      "type": "event"
    },
    {
      "anonymous": false,
      "inputs": [
        {
          "indexed": false,
          "internalType": "string",
          "name": "description",
          "type": "string"
        }
      ],
      "name": "logNewProvableQuery",
      "type": "event"
    },
    {
      "anonymous": false,
      "inputs": [
        {
          "indexed": false,
          "internalType": "address",
          "name": "caller",
          "type": "address"
        },
        {
          "indexed": true,
          "internalType": "bytes32",
          "name": "queryId",
          "type": "bytes32"
        }
      ],
      "name": "sentQueryId",
      "type": "event"
    },
    {
      "anonymous": false,
      "inputs": [
        {
          "indexed": true,
          "internalType": "address",
          "name": "caller",
          "type": "address"
        },
        {
          "indexed": false,
          "internalType": "uint256",
          "name": "amount",
          "type": "uint256"
        }
      ],
      "name": "userWithdrawal",
      "type": "event"
    },
    {
      "constant": true,
      "inputs": [
        {
          "internalType": "bytes32",
          "name": "",
          "type": "bytes32"
        }
      ],
      "name": "afterWaiting",
      "outputs": [
        {
          "internalType": "address",
          "name": "",
          "type": "address"
        }
      ],
      "payable": false,
      "stateMutability": "view",
      "type": "function"
    },
    {
      "constant": true,
      "inputs": [],
      "name": "contractBalance",
      "outputs": [
        {
          "internalType": "uint256",
          "name": "",
          "type": "uint256"
        }
      ],
      "payable": false,
      "stateMutability": "view",
      "type": "function"
    },
    {
      "constant": true,
      "inputs": [],
      "name": "freeCallback",
      "outputs": [
        {
          "internalType": "bool",
          "name": "",
          "type": "bool"
        }
      ],
      "payable": false,
      "stateMutability": "view",
      "type": "function"
    },
    {
      "constant": true,
      "inputs": [],
      "name": "owner",
      "outputs": [
        {
          "internalType": "address payable",
          "name": "",
          "type": "address"
        }
      ],
      "payable": false,
      "stateMutability": "view",
      "type": "function"
    },
    {
      "constant": true,
      "inputs": [
        {
          "internalType": "address",
          "name": "",
          "type": "address"
        }
      ],
      "name": "playerWinnings",
      "outputs": [
        {
          "internalType": "uint256",
          "name": "",
          "type": "uint256"
        }
      ],
      "payable": false,
      "stateMutability": "view",
      "type": "function"
    },
    {
      "constant": true,
      "inputs": [
        {
          "internalType": "address",
          "name": "",
          "type": "address"
        }
      ],
      "name": "waiting",
      "outputs": [
        {
          "internalType": "address",
          "name": "playerAddress",
          "type": "address"
        },
        {
          "internalType": "uint256",
          "name": "betValue",
          "type": "uint256"
        },
        {
          "internalType": "uint256",
          "name": "headsTails",
          "type": "uint256"
        },
        {
          "internalType": "uint256",
          "name": "setRandomPrice",
          "type": "uint256"
        }
      ],
      "payable": false,
      "stateMutability": "view",
      "type": "function"
    },
    {
      "constant": false,
      "inputs": [
        {
          "internalType": "uint256",
          "name": "oneZero",
          "type": "uint256"
        }
      ],
      "name": "flip",
      "outputs": [],
      "payable": true,
      "stateMutability": "payable",
      "type": "function"
    },
    {
      "constant": false,
      "inputs": [
        {
          "internalType": "bytes32",
          "name": "_queryId",
          "type": "bytes32"
        },
        {
          "internalType": "string",
          "name": "_result",
          "type": "string"
        }
      ],
      "name": "__callback",
      "outputs": [],
      "payable": false,
      "stateMutability": "nonpayable",
      "type": "function"
    },
    {
      "constant": false,
      "inputs": [
        {
          "internalType": "bytes32",
          "name": "_myid",
          "type": "bytes32"
        },
        {
          "internalType": "string",
          "name": "_result",
          "type": "string"
        },
        {
          "internalType": "bytes",
          "name": "_proof",
          "type": "bytes"
        }
      ],
      "name": "__callback",
      "outputs": [],
      "payable": false,
      "stateMutability": "nonpayable",
      "type": "function"
    },
    {
      "constant": false,
      "inputs": [],
      "name": "withdrawUserWinnings",
      "outputs": [],
      "payable": false,
      "stateMutability": "nonpayable",
      "type": "function"
    },
    {
      "constant": true,
      "inputs": [],
      "name": "getWinningsBalance",
      "outputs": [
        {
          "internalType": "uint256",
          "name": "",
          "type": "uint256"
        }
      ],
      "payable": false,
      "stateMutability": "view",
      "type": "function"
    },
    {
      "constant": false,
      "inputs": [],
      "name": "fundContract",
      "outputs": [],
      "payable": true,
      "stateMutability": "payable",
      "type": "function"
    },
    {
      "constant": false,
      "inputs": [],
      "name": "fundWinnings",
      "outputs": [],
      "payable": true,
      "stateMutability": "payable",
      "type": "function"
    },
    {
      "constant": false,
      "inputs": [],
      "name": "withdrawAll",
      "outputs": [],
      "payable": false,
      "stateMutability": "nonpayable",
      "type": "function"
    }
  ],
  "bytecode": "0x608060405233600960006101000a81548173ffffffffffffffffffffffffffffffffffffffff021916908373ffffffffffffffffffffffffffffffffffffffff1602179055506001600960146101000a81548160ff02191690831515021790555033600960006101000a81548173ffffffffffffffffffffffffffffffffffffffff021916908373ffffffffffffffffffffffffffffffffffffffff16021790555034600881905550613677806100b76000396000f3fe6080604052600436106100dd5760003560e01c80638b7afe2e1161007f578063b03063bd11610059578063b03063bd146104ad578063b3e2541214610528578063bd097e211461053f578063e437786d14610549576100dd565b80638b7afe2e146104215780638da5cb5b1461044c578063a5ce8496146104a3576100dd565b806338bbfa50116100bb57806338bbfa5014610247578063741c0a0f146103b0578063853828b6146103db578063876c0d59146103f2576100dd565b8063221e885d146100e2578063252f4d811461011057806327dc297e14610175575b600080fd5b61010e600480360360208110156100f857600080fd5b81019080803590602001909291905050506105ef565b005b34801561011c57600080fd5b5061015f6004803603602081101561013357600080fd5b81019080803573ffffffffffffffffffffffffffffffffffffffff1690602001909291905050506108d8565b6040518082815260200191505060405180910390f35b34801561018157600080fd5b506102456004803603604081101561019857600080fd5b8101908080359060200190929190803590602001906401000000008111156101bf57600080fd5b8201836020820111156101d157600080fd5b803590602001918460018302840111640100000000831117156101f357600080fd5b91908080601f016020809104026020016040519081016040528093929190818152602001838380828437600081840152601f19601f8201169050808301925050505050505091929192905050506108f0565b005b34801561025357600080fd5b506103ae6004803603606081101561026a57600080fd5b81019080803590602001909291908035906020019064010000000081111561029157600080fd5b8201836020820111156102a357600080fd5b803590602001918460018302840111640100000000831117156102c557600080fd5b91908080601f016020809104026020016040519081016040528093929190818152602001838380828437600081840152601f19601f8201169050808301925050505050505091929192908035906020019064010000000081111561032857600080fd5b82018360208201111561033a57600080fd5b8035906020019184600183028401116401000000008311171561035c57600080fd5b91908080601f016020809104026020016040519081016040528093929190818152602001838380828437600081840152601f19601f820116905080830192505050505050509192919290505050610c43565b005b3480156103bc57600080fd5b506103c5610c66565b6040518082815260200191505060405180910390f35b3480156103e757600080fd5b506103f0610cad565b005b3480156103fe57600080fd5b50610407610d60565b604051808215151515815260200191505060405180910390f35b34801561042d57600080fd5b50610436610d73565b6040518082815260200191505060405180910390f35b34801561045857600080fd5b50610461610d79565b604051808273ffffffffffffffffffffffffffffffffffffffff1673ffffffffffffffffffffffffffffffffffffffff16815260200191505060405180910390f35b6104ab610d9f565b005b3480156104b957600080fd5b506104e6600480360360208110156104d057600080fd5b8101908080359060200190929190505050610e87565b604051808273ffffffffffffffffffffffffffffffffffffffff1673ffffffffffffffffffffffffffffffffffffffff16815260200191505060405180910390f35b34801561053457600080fd5b5061053d610eba565b005b610547611090565b005b34801561055557600080fd5b506105986004803603602081101561056c57600080fd5b81019080803573ffffffffffffffffffffffffffffffffffffffff1690602001909291905050506110fe565b604051808573ffffffffffffffffffffffffffffffffffffffff1673ffffffffffffffffffffffffffffffffffffffff16815260200184815260200183815260200182815260200194505050505060405180910390f35b3460085411610666576040517f08c379a000000000000000000000000000000000000000000000000000000000815260040180806020018281038252601a8152602001807f576520646f6e2774206861766520656e6f7567682066756e647300000000000081525060200191505060405180910390fd5b6000801515600960149054906101000a900460ff16151514156106925761068b61114e565b90506106b2565b6000600960146101000a81548160ff021916908315150217905550600090505b600080905060006106c882600162030d40611197565b90507f94f2559b5e2b297de3db1587daf2352e872ada3dad01dab9ee3733592fa22ed360405180806020018281038252602681526020018061361d6026913960400191505060405180910390a1807fa19bd41ab5283f5176273e63c8e89f19b8ec4a5c787a6604f651632c71e0f29c33604051808273ffffffffffffffffffffffffffffffffffffffff1673ffffffffffffffffffffffffffffffffffffffff16815260200191505060405180910390a2336007600083815260200190815260200160002060006101000a81548173ffffffffffffffffffffffffffffffffffffffff021916908373ffffffffffffffffffffffffffffffffffffffff1602179055506107d36134f8565b33816000019073ffffffffffffffffffffffffffffffffffffffff16908173ffffffffffffffffffffffffffffffffffffffff168152505034816020018181525050848160400181815250508381606001818152505080600660003373ffffffffffffffffffffffffffffffffffffffff1673ffffffffffffffffffffffffffffffffffffffff16815260200190815260200160002060008201518160000160006101000a81548173ffffffffffffffffffffffffffffffffffffffff021916908373ffffffffffffffffffffffffffffffffffffffff1602179055506020820151816001015560408201518160020155606082015181600301559050505050505050565b60056020528060005260406000206000915090505481565b6108f8611732565b73ffffffffffffffffffffffffffffffffffffffff163373ffffffffffffffffffffffffffffffffffffffff161461092f57600080fd5b60006109b0826040516020018082805190602001908083835b6020831061096b5780518252602082019150602081019050602083039250610948565b6001836020036101000a0380198251168184511680821785525050505050509050019150506040516020818303038152906040528051906020012060001c6002611a4f565b905060006007600085815260200190815260200160002060009054906101000a900473ffffffffffffffffffffffffffffffffffffffff1690506109f26134f8565b600660008373ffffffffffffffffffffffffffffffffffffffff1673ffffffffffffffffffffffffffffffffffffffff1681526020019081526020016000206040518060800160405290816000820160009054906101000a900473ffffffffffffffffffffffffffffffffffffffff1673ffffffffffffffffffffffffffffffffffffffff1673ffffffffffffffffffffffffffffffffffffffff168152602001600182015481526020016002820154815260200160038201548152505090508060400151831415610bac57600081606001516002836020015102039050816020015160086000828254039250508190555080600560008573ffffffffffffffffffffffffffffffffffffffff1673ffffffffffffffffffffffffffffffffffffffff16815260200190815260200160002060008282540192505081905550857f04cab3657f64d71f15c1887100165dadd28bc26d3a77255585ac5e9f7dedab0d83602001516040518080602001838152602001828103825260068152602001807f57696e6e657200000000000000000000000000000000000000000000000000008152506020019250505060405180910390a250610c3c565b8060600151816020015103600860008282540192505081905550847f04cab3657f64d71f15c1887100165dadd28bc26d3a77255585ac5e9f7dedab0d82602001516040518080602001838152602001828103825260058152602001807f4c6f7365720000000000000000000000000000000000000000000000000000008152506020019250505060405180910390a25b5050505050565b6000801b600360008060001b815260200190815260200160002081905550505050565b6000600560003373ffffffffffffffffffffffffffffffffffffffff1673ffffffffffffffffffffffffffffffffffffffff16815260200190815260200160002054905090565b600960009054906101000a900473ffffffffffffffffffffffffffffffffffffffff1673ffffffffffffffffffffffffffffffffffffffff163373ffffffffffffffffffffffffffffffffffffffff1614610d0757600080fd5b6000600854905060006008819055503373ffffffffffffffffffffffffffffffffffffffff166108fc829081150290604051600060405180830381858888f19350505050158015610d5c573d6000803e3d6000fd5b5050565b600960149054906101000a900460ff1681565b60085481565b600960009054906101000a900473ffffffffffffffffffffffffffffffffffffffff1681565b600960009054906101000a900473ffffffffffffffffffffffffffffffffffffffff1673ffffffffffffffffffffffffffffffffffffffff163373ffffffffffffffffffffffffffffffffffffffff1614610df957600080fd5b610e42600560003373ffffffffffffffffffffffffffffffffffffffff1673ffffffffffffffffffffffffffffffffffffffff1681526020019081526020016000205434611ad9565b600560003373ffffffffffffffffffffffffffffffffffffffff1673ffffffffffffffffffffffffffffffffffffffff16815260200190815260200160002081905550565b60076020528060005260406000206000915054906101000a900473ffffffffffffffffffffffffffffffffffffffff1681565b6000600560003373ffffffffffffffffffffffffffffffffffffffff1673ffffffffffffffffffffffffffffffffffffffff1681526020019081526020016000205411610f6f576040517f08c379a00000000000000000000000000000000000000000000000000000000081526004018080602001828103825260148152602001807f4e6f2066756e647320746f20776974686472617700000000000000000000000081525060200191505060405180910390fd5b6000600560003373ffffffffffffffffffffffffffffffffffffffff1673ffffffffffffffffffffffffffffffffffffffff1681526020019081526020016000205490506000600560003373ffffffffffffffffffffffffffffffffffffffff1673ffffffffffffffffffffffffffffffffffffffff168152602001908152602001600020819055503373ffffffffffffffffffffffffffffffffffffffff166108fc829081150290604051600060405180830381858888f1935050505015801561103e573d6000803e3d6000fd5b503373ffffffffffffffffffffffffffffffffffffffff167f42b2a4ad2d4bdf57e819ccd3c6ce6d0a8d6d20b5d3dbf94ef2b05c42f523c610826040518082815260200191505060405180910390a250565b600960009054906101000a900473ffffffffffffffffffffffffffffffffffffffff1673ffffffffffffffffffffffffffffffffffffffff163373ffffffffffffffffffffffffffffffffffffffff16146110ea57600080fd5b6110f660085434611ad9565b600881905550565b60066020528060005260406000206000915090508060000160009054906101000a900473ffffffffffffffffffffffffffffffffffffffff16908060010154908060020154908060030154905084565b60006111926040518060400160405280600581526020017f707269636500000000000000000000000000000000000000000000000000000081525062030d40611b61565b905090565b600080831180156111a9575060208311155b6111b257600080fd5b600a84029350606060016040519080825280601f01601f1916602001820160405280156111ee5781602001600182028038833980820191505090505b5090508360f81b8160008151811061120257fe5b60200101907effffffffffffffffffffffffffffffffffffffffffffffffffffffffffffff1916908160001a905350606060206040519080825280601f01601f1916602001820160405280156112675781602001600182028038833980820191505090505b509050606060206040519080825280601f01601f1916602001820160405280156112a05781602001600182028038833980820191505090505b50905060006112ad611efb565b905060208352424118600143034018602084015260208252806020830152606060206040519080825280601f01601f1916602001820160405280156113015781602001600182028038833980820191505090505b509050886020820152606060086040519080825280601f01601f1916602001820160405280156113405781602001600182028038833980820191505090505b5090506113538260186008846000612218565b5061135c613536565b604051806080016040528087815260200188815260200186815260200184815250905060006113c16040518060400160405280600681526020017f72616e646f6d0000000000000000000000000000000000000000000000000000815250838c612277565b9050606060086040519080825280601f01601f1916602001820160405280156113f95781602001600182028038833980820191505090505b50905060208401517f0100000000000000000000000000000000000000000000000000000000000000810460278301537e01000000000000000000000000000000000000000000000000000000000000810460268301537d010000000000000000000000000000000000000000000000000000000000810460258301537c0100000000000000000000000000000000000000000000000000000000810460248301537b01000000000000000000000000000000000000000000000000000000810460238301537a01000000000000000000000000000000000000000000000000000081046022830153790100000000000000000000000000000000000000000000000000810460218301537801000000000000000000000000000000000000000000000000810460208301535061171f82828560016004811061153857fe5b602002015160028760006004811061154c57fe5b60200201516040518082805190602001908083835b602083106115845780518252602082019150602081019050602083039250611561565b6001836020036101000a038019825116818451168082178552505050505050905001915050602060405180830381855afa1580156115c6573d6000803e3d6000fd5b5050506040513d60208110156115db57600080fd5b8101908080519060200190929190505050876002600481106115f957fe5b60200201516040516020018085805190602001908083835b602083106116345780518252602082019150602081019050602083039250611611565b6001836020036101000a03801982511681845116808217855250505050505090500184805190602001908083835b602083106116855780518252602082019150602081019050602083039250611662565b6001836020036101000a03801982511681845116808217855250505050505090500183815260200182805190602001908083835b602083106116dc57805182526020820191506020810190506020830392506116b9565b6001836020036101000a038019825116818451168082178552505050505050905001945050505050604051602081830303815290604052805190602001206125e4565b8199505050505050505050509392505050565b60008073ffffffffffffffffffffffffffffffffffffffff16600160009054906101000a900473ffffffffffffffffffffffffffffffffffffffff1673ffffffffffffffffffffffffffffffffffffffff1614806117ba575060006117b8600160009054906101000a900473ffffffffffffffffffffffffffffffffffffffff16612600565b145b156117cb576117c9600061260b565b505b600160009054906101000a900473ffffffffffffffffffffffffffffffffffffffff1673ffffffffffffffffffffffffffffffffffffffff166338cc48316040518163ffffffff1660e01b8152600401602060405180830381600087803b15801561183557600080fd5b505af1158015611849573d6000803e3d6000fd5b505050506040513d602081101561185f57600080fd5b810190808051906020019092919050505073ffffffffffffffffffffffffffffffffffffffff166000809054906101000a900473ffffffffffffffffffffffffffffffffffffffff1673ffffffffffffffffffffffffffffffffffffffff16146119a857600160009054906101000a900473ffffffffffffffffffffffffffffffffffffffff1673ffffffffffffffffffffffffffffffffffffffff166338cc48316040518163ffffffff1660e01b8152600401602060405180830381600087803b15801561192d57600080fd5b505af1158015611941573d6000803e3d6000fd5b505050506040513d602081101561195757600080fd5b81019080805190602001909291905050506000806101000a81548173ffffffffffffffffffffffffffffffffffffffff021916908373ffffffffffffffffffffffffffffffffffffffff1602179055505b6000809054906101000a900473ffffffffffffffffffffffffffffffffffffffff1673ffffffffffffffffffffffffffffffffffffffff1663c281d19e6040518163ffffffff1660e01b815260040160206040518083038186803b158015611a0f57600080fd5b505afa158015611a23573d6000803e3d6000fd5b505050506040513d6020811015611a3957600080fd5b8101908080519060200190929190505050905090565b600080821415611ac7576040517f08c379a00000000000000000000000000000000000000000000000000000000081526004018080602001828103825260188152602001807f536166654d6174683a206d6f64756c6f206279207a65726f000000000000000081525060200191505060405180910390fd5b818381611ad057fe5b06905092915050565b600080828401905083811015611b57576040517f08c379a000000000000000000000000000000000000000000000000000000000815260040180806020018281038252601b8152602001807f536166654d6174683a206164646974696f6e206f766572666c6f77000000000081525060200191505060405180910390fd5b8091505092915050565b60008073ffffffffffffffffffffffffffffffffffffffff16600160009054906101000a900473ffffffffffffffffffffffffffffffffffffffff1673ffffffffffffffffffffffffffffffffffffffff161480611be957506000611be7600160009054906101000a900473ffffffffffffffffffffffffffffffffffffffff16612600565b145b15611bfa57611bf8600061260b565b505b600160009054906101000a900473ffffffffffffffffffffffffffffffffffffffff1673ffffffffffffffffffffffffffffffffffffffff166338cc48316040518163ffffffff1660e01b8152600401602060405180830381600087803b158015611c6457600080fd5b505af1158015611c78573d6000803e3d6000fd5b505050506040513d6020811015611c8e57600080fd5b810190808051906020019092919050505073ffffffffffffffffffffffffffffffffffffffff166000809054906101000a900473ffffffffffffffffffffffffffffffffffffffff1673ffffffffffffffffffffffffffffffffffffffff1614611dd757600160009054906101000a900473ffffffffffffffffffffffffffffffffffffffff1673ffffffffffffffffffffffffffffffffffffffff166338cc48316040518163ffffffff1660e01b8152600401602060405180830381600087803b158015611d5c57600080fd5b505af1158015611d70573d6000803e3d6000fd5b505050506040513d6020811015611d8657600080fd5b81019080805190602001909291905050506000806101000a81548173ffffffffffffffffffffffffffffffffffffffff021916908373ffffffffffffffffffffffffffffffffffffffff1602179055505b6000809054906101000a900473ffffffffffffffffffffffffffffffffffffffff1673ffffffffffffffffffffffffffffffffffffffff16632ef3accc84846040518363ffffffff1660e01b81526004018080602001838152602001828103825284818151815260200191508051906020019080838360005b83811015611e6b578082015181840152602081019050611e50565b50505050905090810190601f168015611e985780820380516001836020036101000a031916815260200191505b509350505050602060405180830381600087803b158015611eb857600080fd5b505af1158015611ecc573d6000803e3d6000fd5b505050506040513d6020811015611ee257600080fd5b8101908080519060200190929190505050905092915050565b60008073ffffffffffffffffffffffffffffffffffffffff16600160009054906101000a900473ffffffffffffffffffffffffffffffffffffffff1673ffffffffffffffffffffffffffffffffffffffff161480611f8357506000611f81600160009054906101000a900473ffffffffffffffffffffffffffffffffffffffff16612600565b145b15611f9457611f92600061260b565b505b600160009054906101000a900473ffffffffffffffffffffffffffffffffffffffff1673ffffffffffffffffffffffffffffffffffffffff166338cc48316040518163ffffffff1660e01b8152600401602060405180830381600087803b158015611ffe57600080fd5b505af1158015612012573d6000803e3d6000fd5b505050506040513d602081101561202857600080fd5b810190808051906020019092919050505073ffffffffffffffffffffffffffffffffffffffff166000809054906101000a900473ffffffffffffffffffffffffffffffffffffffff1673ffffffffffffffffffffffffffffffffffffffff161461217157600160009054906101000a900473ffffffffffffffffffffffffffffffffffffffff1673ffffffffffffffffffffffffffffffffffffffff166338cc48316040518163ffffffff1660e01b8152600401602060405180830381600087803b1580156120f657600080fd5b505af115801561210a573d6000803e3d6000fd5b505050506040513d602081101561212057600080fd5b81019080805190602001909291905050506000806101000a81548173ffffffffffffffffffffffffffffffffffffffff021916908373ffffffffffffffffffffffffffffffffffffffff1602179055505b6000809054906101000a900473ffffffffffffffffffffffffffffffffffffffff1673ffffffffffffffffffffffffffffffffffffffff1663abaa5f3e6040518163ffffffff1660e01b815260040160206040518083038186803b1580156121d857600080fd5b505afa1580156121ec573d6000803e3d6000fd5b505050506040513d602081101561220257600080fd5b8101908080519060200190929190505050905090565b606060008285019050808451101561222f57600080fd5b600086602001905060008460200190505b8688602001018210156122685781890151808288015250602082019150602081019050612240565b85935050505095945050505050565b60008073ffffffffffffffffffffffffffffffffffffffff16600160009054906101000a900473ffffffffffffffffffffffffffffffffffffffff1673ffffffffffffffffffffffffffffffffffffffff1614806122ff575060006122fd600160009054906101000a900473ffffffffffffffffffffffffffffffffffffffff16612600565b145b156123105761230e600061260b565b505b600160009054906101000a900473ffffffffffffffffffffffffffffffffffffffff1673ffffffffffffffffffffffffffffffffffffffff166338cc48316040518163ffffffff1660e01b8152600401602060405180830381600087803b15801561237a57600080fd5b505af115801561238e573d6000803e3d6000fd5b505050506040513d60208110156123a457600080fd5b810190808051906020019092919050505073ffffffffffffffffffffffffffffffffffffffff166000809054906101000a900473ffffffffffffffffffffffffffffffffffffffff1673ffffffffffffffffffffffffffffffffffffffff16146124ed57600160009054906101000a900473ffffffffffffffffffffffffffffffffffffffff1673ffffffffffffffffffffffffffffffffffffffff166338cc48316040518163ffffffff1660e01b8152600401602060405180830381600087803b15801561247257600080fd5b505af1158015612486573d6000803e3d6000fd5b505050506040513d602081101561249c57600080fd5b81019080805190602001909291905050506000806101000a81548173ffffffffffffffffffffffffffffffffffffffff021916908373ffffffffffffffffffffffffffffffffffffffff1602179055505b6060600460405190808252806020026020018201604052801561252457816020015b606081526020019060019003908161250f5790505b5090508360006004811061253457fe5b60200201518160008151811061254657fe5b60200260200101819052508360016004811061255e57fe5b60200201518160018151811061257057fe5b60200260200101819052508360026004811061258857fe5b60200201518160028151811061259a57fe5b6020026020010181905250836003600481106125b257fe5b6020020151816003815181106125c457fe5b60200260200101819052506125da85828561261c565b9150509392505050565b8060036000848152602001908152602001600020819055505050565b6000813b9050919050565b6000612615612b7e565b9050919050565b60008073ffffffffffffffffffffffffffffffffffffffff16600160009054906101000a900473ffffffffffffffffffffffffffffffffffffffff1673ffffffffffffffffffffffffffffffffffffffff1614806126a4575060006126a2600160009054906101000a900473ffffffffffffffffffffffffffffffffffffffff16612600565b145b156126b5576126b3600061260b565b505b600160009054906101000a900473ffffffffffffffffffffffffffffffffffffffff1673ffffffffffffffffffffffffffffffffffffffff166338cc48316040518163ffffffff1660e01b8152600401602060405180830381600087803b15801561271f57600080fd5b505af1158015612733573d6000803e3d6000fd5b505050506040513d602081101561274957600080fd5b810190808051906020019092919050505073ffffffffffffffffffffffffffffffffffffffff166000809054906101000a900473ffffffffffffffffffffffffffffffffffffffff1673ffffffffffffffffffffffffffffffffffffffff161461289257600160009054906101000a900473ffffffffffffffffffffffffffffffffffffffff1673ffffffffffffffffffffffffffffffffffffffff166338cc48316040518163ffffffff1660e01b8152600401602060405180830381600087803b15801561281757600080fd5b505af115801561282b573d6000803e3d6000fd5b505050506040513d602081101561284157600080fd5b81019080805190602001909291905050506000806101000a81548173ffffffffffffffffffffffffffffffffffffffff021916908373ffffffffffffffffffffffffffffffffffffffff1602179055505b60008060009054906101000a900473ffffffffffffffffffffffffffffffffffffffff1673ffffffffffffffffffffffffffffffffffffffff16632ef3accc86856040518363ffffffff1660e01b81526004018080602001838152602001828103825284818151815260200191508051906020019080838360005b8381101561292857808201518184015260208101905061290d565b50505050905090810190601f1680156129555780820380516001836020036101000a031916815260200191505b509350505050602060405180830381600087803b15801561297557600080fd5b505af1158015612989573d6000803e3d6000fd5b505050506040513d602081101561299f57600080fd5b81019080805190602001909291905050509050823a02670de0b6b3a7640000018111156129d2576000801b915050612b77565b60606129dd856130d5565b90506000809054906101000a900473ffffffffffffffffffffffffffffffffffffffff1673ffffffffffffffffffffffffffffffffffffffff1663c55c1cb68360008985896040518663ffffffff1660e01b8152600401808581526020018060200180602001848152602001838103835286818151815260200191508051906020019080838360005b83811015612a81578082015181840152602081019050612a66565b50505050905090810190601f168015612aae5780820380516001836020036101000a031916815260200191505b50838103825285818151815260200191508051906020019080838360005b83811015612ae7578082015181840152602081019050612acc565b50505050905090810190601f168015612b145780820380516001836020036101000a031916815260200191505b5096505050505050506020604051808303818588803b158015612b3657600080fd5b505af1158015612b4a573d6000803e3d6000fd5b50505050506040513d6020811015612b6157600080fd5b8101908080519060200190929190505050925050505b9392505050565b600080612b9e731d3b2638a7cc9f2cb3d298a3da7a90b67e5506ed612600565b1115612c4057731d3b2638a7cc9f2cb3d298a3da7a90b67e5506ed600160006101000a81548173ffffffffffffffffffffffffffffffffffffffff021916908373ffffffffffffffffffffffffffffffffffffffff160217905550612c376040518060400160405280600b81526020017f6574685f6d61696e6e6574000000000000000000000000000000000000000000815250613155565b600190506130d2565b6000612c5f73c03a2615d5efaf5f49f60b7bb6583eaec212fdf1612600565b1115612d015773c03a2615d5efaf5f49f60b7bb6583eaec212fdf1600160006101000a81548173ffffffffffffffffffffffffffffffffffffffff021916908373ffffffffffffffffffffffffffffffffffffffff160217905550612cf86040518060400160405280600c81526020017f6574685f726f707374656e330000000000000000000000000000000000000000815250613155565b600190506130d2565b6000612d2073b7a07bcf2ba2f2703b24c0691b5278999c59ac7e612600565b1115612dc25773b7a07bcf2ba2f2703b24c0691b5278999c59ac7e600160006101000a81548173ffffffffffffffffffffffffffffffffffffffff021916908373ffffffffffffffffffffffffffffffffffffffff160217905550612db96040518060400160405280600981526020017f6574685f6b6f76616e0000000000000000000000000000000000000000000000815250613155565b600190506130d2565b6000612de173146500cfd35b22e4a392fe0adc06de1a1368ed48612600565b1115612e835773146500cfd35b22e4a392fe0adc06de1a1368ed48600160006101000a81548173ffffffffffffffffffffffffffffffffffffffff021916908373ffffffffffffffffffffffffffffffffffffffff160217905550612e7a6040518060400160405280600b81526020017f6574685f72696e6b656279000000000000000000000000000000000000000000815250613155565b600190506130d2565b6000612ea273a2998efd205fb9d4b4963afb70778d6354ad3a41612600565b1115612f445773a2998efd205fb9d4b4963afb70778d6354ad3a41600160006101000a81548173ffffffffffffffffffffffffffffffffffffffff021916908373ffffffffffffffffffffffffffffffffffffffff160217905550612f3b6040518060400160405280600a81526020017f6574685f676f65726c6900000000000000000000000000000000000000000000815250613155565b600190506130d2565b6000612f63736f485c8bf6fc43ea212e93bbf8ce046c7f1cb475612600565b1115612fc757736f485c8bf6fc43ea212e93bbf8ce046c7f1cb475600160006101000a81548173ffffffffffffffffffffffffffffffffffffffff021916908373ffffffffffffffffffffffffffffffffffffffff160217905550600190506130d2565b6000612fe67320e12a1f859b3feae5fb2a0a32c18f5a65555bbf612600565b111561304a577320e12a1f859b3feae5fb2a0a32c18f5a65555bbf600160006101000a81548173ffffffffffffffffffffffffffffffffffffffff021916908373ffffffffffffffffffffffffffffffffffffffff160217905550600190506130d2565b60006130697351efaf4c8b3c9afbd5ab9f4bbc82784ab6ef8faa612600565b11156130cd577351efaf4c8b3c9afbd5ab9f4bbc82784ab6ef8faa600160006101000a81548173ffffffffffffffffffffffffffffffffffffffff021916908373ffffffffffffffffffffffffffffffffffffffff160217905550600190506130d2565b600090505b90565b60606130df61316f565b6130e761355d565b6130f38161040061317b565b6130fc816131c5565b60008090505b835181101561313e5761313184828151811061311a57fe5b6020026020010151836131d390919063ffffffff16565b8080600101915050613102565b50613148816131f8565b8060000151915050919050565b806002908051906020019061316b929190613577565b5050565b60405180590338823950565b600081905060006020828161318c57fe5b06146131a5576020818161319c57fe5b06602003810190505b808360200181815250506040518084526000815281810160405250505050565b6131d0816004613206565b50565b6131e08260028351613227565b6131f3818361336790919063ffffffff16565b505050565b613203816007613206565b50565b613223601f60058360ff16901b178361341290919063ffffffff16565b5050565b601781116132535761324e8160058460ff16901b60ff16178461341290919063ffffffff16565b613362565b60ff811161329457613278601860058460ff16901b178461341290919063ffffffff16565b61328e816001856134529092919063ffffffff16565b50613361565b61ffff81116132d6576132ba601960058460ff16901b178461341290919063ffffffff16565b6132d0816002856134529092919063ffffffff16565b50613360565b63ffffffff811161331a576132fe601a60058460ff16901b178461341290919063ffffffff16565b613314816004856134529092919063ffffffff16565b5061335f565b67ffffffffffffffff811161335e57613346601b60058460ff16901b178461341290919063ffffffff16565b61335c816008856134529092919063ffffffff16565b505b5b5b5b5b505050565b61336f61355d565b8260200151836000015151835101111561339f5761339e836002613398866020015186516134b9565b026134d5565b5b60008060008451905085518051602081830101945086518101825260208701935050505b602081106133e657815183526020830192506020820191506020810390506133c3565b60006001826020036101000a039050801983511681855116818117865250508694505050505092915050565b81602001516001836000015151011115613438576134378260028460200151026134d5565b5b815180516020818301018381536001820183525050505050565b61345a61355d565b836020015184600001515183011115613488576134878460026134818760200151866134b9565b026134d5565b5b60006001836101000a0390508451805184818301018684198251161781528582018352505050849150509392505050565b6000818311156134cb578290506134cf565b8190505b92915050565b6060826000015190506134e8838361317b565b6134f28382613367565b50505050565b6040518060800160405280600073ffffffffffffffffffffffffffffffffffffffff1681526020016000815260200160008152602001600081525090565b60405180608001604052806004905b60608152602001906001900390816135455790505090565b604051806040016040528060608152602001600081525090565b828054600181600116156101000203166002900490600052602060002090601f016020900481019282601f106135b857805160ff19168380011785556135e6565b828001600101855582156135e6579182015b828111156135e55782518255916020019190600101906135ca565b5b5090506135f391906135f7565b5090565b61361991905b808211156136155760008160009055506001016135fd565b5090565b9056fe4d6573736167652073656e742e2057616974696e6720666f7220616e20616e737765722e2e2ea265627a7a72315820908bb938fe5ba484a08d94eb279ccb30906a0006430bf83bdd08234c16f55a9664736f6c63430005100032",
  "source": "pragma solidity =0.5.16;\r\n\r\nimport './provableAPI_0.5.sol';\r\nimport './SafeMath.sol';\r\n\r\ncontract Coinflip is usingProvable {\r\n    using SafeMath for uint;\r\n    \r\n    struct Bet {\r\n        address playerAddress;\r\n        uint betValue;\r\n        uint headsTails;\r\n        uint setRandomPrice;\r\n    }\r\n    \r\n    mapping(address => uint) public playerWinnings;\r\n    mapping (address => Bet) public waiting;\r\n    mapping (bytes32 => address) public afterWaiting;\r\n    \r\n    event logNewProvableQuery(string description);\r\n    event sentQueryId(address caller, bytes32 indexed queryId);\r\n    event callbackReceived(bytes32 indexed queryId, string description, uint256 amount);\r\n    event userWithdrawal(address indexed caller, uint256 amount);\r\n\r\n    uint public contractBalance;\r\n    \r\n    uint256 constant GAS_FOR_CALLBACK = 200000;\r\n    uint256 constant NUM_RANDOM_BYTES_REQUESTED = 1;\r\n    \r\n   address payable public owner = msg.sender;\r\n   \r\n   bool public freeCallback = true;\r\n\r\n    constructor() public payable{\r\n        owner = msg.sender;\r\n        contractBalance = msg.value;\r\n    }\r\n    \r\n    modifier onlyOwner() {\r\n        require(msg.sender == owner);\r\n        _;\r\n    }\r\n    \r\nfunction flip(uint256 oneZero) public payable {\r\n        require(contractBalance > msg.value, \"We don't have enough funds\");\r\n        uint256 randomPrice;\r\n\r\n        //determine if this is first callback then declare Provable/gas price\r\n        if(freeCallback == false){\r\n            randomPrice = getQueryPrice();\r\n        } else {\r\n            freeCallback = false;\r\n            randomPrice = 0;\r\n        }\r\n\r\n        //Calling provable library function\r\n        uint256 QUERY_EXECUTION_DELAY = 0;\r\n        bytes32 queryId = provable_newRandomDSQuery(\r\n            QUERY_EXECUTION_DELAY,\r\n            NUM_RANDOM_BYTES_REQUESTED,\r\n            GAS_FOR_CALLBACK\r\n            );\r\n        emit logNewProvableQuery(\"Message sent. Waiting for an answer...\");\r\n        emit sentQueryId(msg.sender, queryId);\r\n\r\n        afterWaiting[queryId] = msg.sender;\r\n\r\n        //Adding user to mapping with address, bet, and queryID\r\n        Bet memory newBetter;\r\n        newBetter.playerAddress = msg.sender;\r\n        newBetter.betValue = msg.value; \r\n        newBetter.headsTails = oneZero;\r\n        newBetter.setRandomPrice = randomPrice;\r\n        \r\n        waiting[msg.sender] = newBetter;\r\n    }\r\n    \r\n    function __callback(bytes32 _queryId, string memory _result) public {\r\n        require(msg.sender == provable_cbAddress());\r\n        \r\n        //turn number into 1 or 0\r\n        uint256 flipResult = SafeMath.mod(uint256(keccak256(abi.encodePacked(_result))), 2);\r\n\r\n        //linking new mapping with new struct\r\n        address _player = afterWaiting[_queryId];\r\n        \r\n        Bet memory postBet = waiting[_player];\r\n\r\n    \r\n        if(flipResult == postBet.headsTails){\r\n            //winner\r\n            // uint winAmount = SafeMath.sub(SafeMath.mul(postBet.betValue, 2), SafeMath.add(postBet.setRandomPrice, tx.gasprice)); \r\n            //contractBalance = SafeMath.sub(contractBalance, SafeMath.add(postBet.betValue, tx.gasprice));\r\n            //playerWinnings[_player] = SafeMath.add(playerWinnings[_player], winAmount);\r\n\r\n            uint winAmount = (postBet.betValue * 2) - postBet.setRandomPrice;\r\n            contractBalance -= postBet.betValue;\r\n            playerWinnings[_player] += winAmount;\r\n            emit callbackReceived(_queryId, \"Winner\", postBet.betValue);\r\n        } else {\r\n            //loser\r\n            //contractBalance = SafeMath.sub(SafeMath.add(contractBalance, postBet.betValue), (SafeMath.add(postBet.setRandomPrice, tx.gasprice)));\r\n            contractBalance += (postBet.betValue - postBet.setRandomPrice);\r\n            emit callbackReceived(_queryId, \"Loser\", postBet.betValue);\r\n        }\r\n    }\r\n    \r\n    //combine gas and randomTx fee\r\n    function getQueryPrice() internal returns(uint256 _price) {\r\n        _price = provable_getPrice(\"price\", GAS_FOR_CALLBACK);\r\n    }\r\n    \r\n    \r\n    function withdrawUserWinnings() public {\r\n        require(playerWinnings[msg.sender] > 0, \"No funds to withdraw\");\r\n        uint toTransfer = playerWinnings[msg.sender];\r\n        playerWinnings[msg.sender] = 0;\r\n        msg.sender.transfer(toTransfer);\r\n        emit userWithdrawal(msg.sender, toTransfer);\r\n    }\r\n    \r\n    function getWinningsBalance() public view returns(uint){\r\n        return playerWinnings[msg.sender];\r\n    }\r\n    \r\n    //Owner functions\r\n    \r\n    function fundContract() public payable onlyOwner {\r\n        contractBalance = SafeMath.add(contractBalance, msg.value);\r\n    }\r\n    \r\n    function fundWinnings() public payable onlyOwner {\r\n        playerWinnings[msg.sender] = SafeMath.add(playerWinnings[msg.sender], msg.value);\r\n    }\r\n    \r\n    function withdrawAll() public onlyOwner {\r\n        uint toTransfer = contractBalance;\r\n        contractBalance = 0;\r\n        msg.sender.transfer(toTransfer);\r\n    }\r\n\r\n}",
  "sourcePath": "C:/Users/15183/Documents/dapp-projects/project-coinflip-v-6/contracts/Coinflip.sol",
  "compiler": {
    "name": "solc",
    "version": "0.5.16+commit.9c3226ce.Emscripten.clang"
  },
  "schemaVersion": "3.3.1",
  "updatedAt": "2020-12-19T09:11:04.359Z",
  "networkType": "ethereum",
  "devdoc": {
    "methods": {}
  },
  "userdoc": {
    "methods": {}
  }
}