{
    "contractName": "Coinflip",
    "abi": [
        {
            "inputs": [],
            "payable": true,
            "stateMutability": "payable",
            "type": "constructor"
        },
        {
            "anonymous": false,
            "inputs": [
                {
                    "indexed": false,
                    "internalType": "string",
                    "name": "description",
                    "type": "string"
                }
            ],
            "name": "logNewProvableQuery",
            "type": "event"
        },
        {
            "anonymous": false,
            "inputs": [
                {
                    "indexed": false,
                    "internalType": "address",
                    "name": "caller",
                    "type": "address"
                },
                {
                    "indexed": false,
                    "internalType": "uint256",
                    "name": "amount",
                    "type": "uint256"
                },
                {
                    "indexed": false,
                    "internalType": "bool",
                    "name": "won",
                    "type": "bool"
                }
            ],
            "name": "result",
            "type": "event"
        },
        {
            "constant": true,
            "inputs": [],
            "name": "contractBalance",
            "outputs": [
                {
                    "internalType": "uint256",
                    "name": "",
                    "type": "uint256"
                }
            ],
            "payable": false,
            "stateMutability": "view",
            "type": "function"
        },
        {
            "constant": true,
            "inputs": [],
            "name": "owner",
            "outputs": [
                {
                    "internalType": "address payable",
                    "name": "",
                    "type": "address"
                }
            ],
            "payable": false,
            "stateMutability": "view",
            "type": "function"
        },
        {
            "constant": false,
            "inputs": [
                {
                    "internalType": "uint256",
                    "name": "oneZero",
                    "type": "uint256"
                }
            ],
            "name": "flip",
            "outputs": [],
            "payable": true,
            "stateMutability": "payable",
            "type": "function"
        },
        {
            "constant": false,
            "inputs": [
                {
                    "internalType": "bytes32",
                    "name": "_queryId",
                    "type": "bytes32"
                },
                {
                    "internalType": "string",
                    "name": "_result",
                    "type": "string"
                }
            ],
            "name": "__callback",
            "outputs": [],
            "payable": false,
            "stateMutability": "nonpayable",
            "type": "function"
        },
        {
            "constant": false,
            "inputs": [
                {
                    "internalType": "bytes32",
                    "name": "_myid",
                    "type": "bytes32"
                },
                {
                    "internalType": "string",
                    "name": "_result",
                    "type": "string"
                },
                {
                    "internalType": "bytes",
                    "name": "_proof",
                    "type": "bytes"
                }
            ],
            "name": "__callback",
            "outputs": [],
            "payable": false,
            "stateMutability": "nonpayable",
            "type": "function"
        },
        {
            "constant": false,
            "inputs": [],
            "name": "withdrawUserWinnings",
            "outputs": [],
            "payable": false,
            "stateMutability": "nonpayable",
            "type": "function"
        },
        {
            "constant": true,
            "inputs": [],
            "name": "getWinningsBalance",
            "outputs": [
                {
                    "internalType": "uint256",
                    "name": "",
                    "type": "uint256"
                }
            ],
            "payable": false,
            "stateMutability": "view",
            "type": "function"
        },
        {
            "constant": false,
            "inputs": [],
            "name": "fundContract",
            "outputs": [],
            "payable": true,
            "stateMutability": "payable",
            "type": "function"
        },
        {
            "constant": false,
            "inputs": [],
            "name": "fundWinnings",
            "outputs": [],
            "payable": true,
            "stateMutability": "payable",
            "type": "function"
        },
        {
            "constant": false,
            "inputs": [],
            "name": "withdrawAll",
            "outputs": [],
            "payable": false,
            "stateMutability": "nonpayable",
            "type": "function"
        }
    ],
    "bytecode": "0x608060405233600960006101000a81548173ffffffffffffffffffffffffffffffffffffffff021916908373ffffffffffffffffffffffffffffffffffffffff16021790555033600960006101000a81548173ffffffffffffffffffffffffffffffffffffffff021916908373ffffffffffffffffffffffffffffffffffffffff160217905550346008819055506131418061009c6000396000f3fe6080604052600436106100915760003560e01c80638b7afe2e116100595780638b7afe2e146103415780638da5cb5b1461036c578063a5ce8496146103c3578063b3e25412146103cd578063bd097e21146103e457610091565b8063221e885d1461009657806327dc297e146100c457806338bbfa5014610196578063741c0a0f146102ff578063853828b61461032a575b600080fd5b6100c2600480360360208110156100ac57600080fd5b81019080803590602001909291905050506103ee565b005b3480156100d057600080fd5b50610194600480360360408110156100e757600080fd5b81019080803590602001909291908035906020019064010000000081111561010e57600080fd5b82018360208201111561012057600080fd5b8035906020019184600183028401116401000000008311171561014257600080fd5b91908080601f016020809104026020016040519081016040528093929190818152602001838380828437600081840152601f19601f820116905080830192505050505050509192919290505050610618565b005b3480156101a257600080fd5b506102fd600480360360608110156101b957600080fd5b8101908080359060200190929190803590602001906401000000008111156101e057600080fd5b8201836020820111156101f257600080fd5b8035906020019184600183028401116401000000008311171561021457600080fd5b91908080601f016020809104026020016040519081016040528093929190818152602001838380828437600081840152601f19601f8201169050808301925050505050505091929192908035906020019064010000000081111561027757600080fd5b82018360208201111561028957600080fd5b803590602001918460018302840111640100000000831117156102ab57600080fd5b91908080601f016020809104026020016040519081016040528093929190818152602001838380828437600081840152601f19601f8201169050808301925050505050505091929192905050506109a9565b005b34801561030b57600080fd5b506103146109cc565b6040518082815260200191505060405180910390f35b34801561033657600080fd5b5061033f610a13565b005b34801561034d57600080fd5b50610356610ac6565b6040518082815260200191505060405180910390f35b34801561037857600080fd5b50610381610acc565b604051808273ffffffffffffffffffffffffffffffffffffffff1673ffffffffffffffffffffffffffffffffffffffff16815260200191505060405180910390f35b6103cb610af2565b005b3480156103d957600080fd5b506103e2610bda565b005b6103ec610d62565b005b3460085411610465576040517f08c379a000000000000000000000000000000000000000000000000000000000815260040180806020018281038252601a8152602001807f576520646f6e2774206861766520656e6f7567682066756e647300000000000081525060200191505060405180910390fd5b6000809050600062030d409050600061048083600184610dd0565b90507f94f2559b5e2b297de3db1587daf2352e872ada3dad01dab9ee3733592fa22ed36040518080602001828103825260268152602001806130e76026913960400191505060405180910390a1336007600083815260200190815260200160002060006101000a81548173ffffffffffffffffffffffffffffffffffffffff021916908373ffffffffffffffffffffffffffffffffffffffff160217905550610527612fa8565b33816000019073ffffffffffffffffffffffffffffffffffffffff16908173ffffffffffffffffffffffffffffffffffffffff1681525050348160200181815250508481604001818152505080600660003373ffffffffffffffffffffffffffffffffffffffff1673ffffffffffffffffffffffffffffffffffffffff16815260200190815260200160002060008201518160000160006101000a81548173ffffffffffffffffffffffffffffffffffffffff021916908373ffffffffffffffffffffffffffffffffffffffff16021790555060208201518160010155604082015181600201559050505050505050565b61062061136b565b73ffffffffffffffffffffffffffffffffffffffff163373ffffffffffffffffffffffffffffffffffffffff161461065757600080fd5b60006106d8826040516020018082805190602001908083835b602083106106935780518252602082019150602081019050602083039250610670565b6001836020036101000a0380198251168184511680821785525050505050509050019150506040516020818303038152906040528051906020012060001c6002611688565b905060006007600085815260200190815260200160002060009054906101000a900473ffffffffffffffffffffffffffffffffffffffff16905061071a612fa8565b600660008373ffffffffffffffffffffffffffffffffffffffff1673ffffffffffffffffffffffffffffffffffffffff1681526020019081526020016000206040518060600160405290816000820160009054906101000a900473ffffffffffffffffffffffffffffffffffffffff1673ffffffffffffffffffffffffffffffffffffffff1673ffffffffffffffffffffffffffffffffffffffff168152602001600182015481526020016002820154815250509050806040015183141561090f5760006107ed826020015160026116d2565b90506107ff6008548360200151611758565b60088190555061084e600560008573ffffffffffffffffffffffffffffffffffffffff1673ffffffffffffffffffffffffffffffffffffffff16815260200190815260200160002054826117a2565b600560008573ffffffffffffffffffffffffffffffffffffffff1673ffffffffffffffffffffffffffffffffffffffff168152602001908152602001600020819055507fea22e2b2acbbbf65b601b73aea637f26f87bc5d55e7a6afc7b7e53237f43fb6783826001604051808473ffffffffffffffffffffffffffffffffffffffff1673ffffffffffffffffffffffffffffffffffffffff16815260200183815260200182151515158152602001935050505060405180910390a1506109a2565b61091f60085482602001516117a2565b6008819055507fea22e2b2acbbbf65b601b73aea637f26f87bc5d55e7a6afc7b7e53237f43fb678282602001516000604051808473ffffffffffffffffffffffffffffffffffffffff1673ffffffffffffffffffffffffffffffffffffffff16815260200183815260200182151515158152602001935050505060405180910390a15b5050505050565b6000801b600360008060001b815260200190815260200160002081905550505050565b6000600560003373ffffffffffffffffffffffffffffffffffffffff1673ffffffffffffffffffffffffffffffffffffffff16815260200190815260200160002054905090565b3373ffffffffffffffffffffffffffffffffffffffff16600960009054906101000a900473ffffffffffffffffffffffffffffffffffffffff1673ffffffffffffffffffffffffffffffffffffffff1614610a6d57600080fd5b6000600854905060006008819055503373ffffffffffffffffffffffffffffffffffffffff166108fc829081150290604051600060405180830381858888f19350505050158015610ac2573d6000803e3d6000fd5b5050565b60085481565b600960009054906101000a900473ffffffffffffffffffffffffffffffffffffffff1681565b3373ffffffffffffffffffffffffffffffffffffffff16600960009054906101000a900473ffffffffffffffffffffffffffffffffffffffff1673ffffffffffffffffffffffffffffffffffffffff1614610b4c57600080fd5b610b95600560003373ffffffffffffffffffffffffffffffffffffffff1673ffffffffffffffffffffffffffffffffffffffff16815260200190815260200160002054346117a2565b600560003373ffffffffffffffffffffffffffffffffffffffff1673ffffffffffffffffffffffffffffffffffffffff16815260200190815260200160002081905550565b6000600560003373ffffffffffffffffffffffffffffffffffffffff1673ffffffffffffffffffffffffffffffffffffffff1681526020019081526020016000205411610c8f576040517f08c379a00000000000000000000000000000000000000000000000000000000081526004018080602001828103825260148152602001807f4e6f2066756e647320746f20776974686472617700000000000000000000000081525060200191505060405180910390fd5b6000600560003373ffffffffffffffffffffffffffffffffffffffff1673ffffffffffffffffffffffffffffffffffffffff1681526020019081526020016000205490506000600560003373ffffffffffffffffffffffffffffffffffffffff1673ffffffffffffffffffffffffffffffffffffffff168152602001908152602001600020819055503373ffffffffffffffffffffffffffffffffffffffff166108fc829081150290604051600060405180830381858888f19350505050158015610d5e573d6000803e3d6000fd5b5050565b3373ffffffffffffffffffffffffffffffffffffffff16600960009054906101000a900473ffffffffffffffffffffffffffffffffffffffff1673ffffffffffffffffffffffffffffffffffffffff1614610dbc57600080fd5b610dc8600854346117a2565b600881905550565b60008083118015610de2575060208311155b610deb57600080fd5b600a84029350606060016040519080825280601f01601f191660200182016040528015610e275781602001600182028038833980820191505090505b5090508360f81b81600081518110610e3b57fe5b60200101907effffffffffffffffffffffffffffffffffffffffffffffffffffffffffffff1916908160001a905350606060206040519080825280601f01601f191660200182016040528015610ea05781602001600182028038833980820191505090505b509050606060206040519080825280601f01601f191660200182016040528015610ed95781602001600182028038833980820191505090505b5090506000610ee661182a565b905060208352424118600143034018602084015260208252806020830152606060206040519080825280601f01601f191660200182016040528015610f3a5781602001600182028038833980820191505090505b509050886020820152606060086040519080825280601f01601f191660200182016040528015610f795781602001600182028038833980820191505090505b509050610f8c8260186008846000611b47565b50610f95612fdf565b60405180608001604052808781526020018881526020018681526020018481525090506000610ffa6040518060400160405280600681526020017f72616e646f6d0000000000000000000000000000000000000000000000000000815250838c611ba6565b9050606060086040519080825280601f01601f1916602001820160405280156110325781602001600182028038833980820191505090505b50905060208401517f0100000000000000000000000000000000000000000000000000000000000000810460278301537e01000000000000000000000000000000000000000000000000000000000000810460268301537d010000000000000000000000000000000000000000000000000000000000810460258301537c0100000000000000000000000000000000000000000000000000000000810460248301537b01000000000000000000000000000000000000000000000000000000810460238301537a01000000000000000000000000000000000000000000000000000081046022830153790100000000000000000000000000000000000000000000000000810460218301537801000000000000000000000000000000000000000000000000810460208301535061135882828560016004811061117157fe5b602002015160028760006004811061118557fe5b60200201516040518082805190602001908083835b602083106111bd578051825260208201915060208101905060208303925061119a565b6001836020036101000a038019825116818451168082178552505050505050905001915050602060405180830381855afa1580156111ff573d6000803e3d6000fd5b5050506040513d602081101561121457600080fd5b81019080805190602001909291905050508760026004811061123257fe5b60200201516040516020018085805190602001908083835b6020831061126d578051825260208201915060208101905060208303925061124a565b6001836020036101000a03801982511681845116808217855250505050505090500184805190602001908083835b602083106112be578051825260208201915060208101905060208303925061129b565b6001836020036101000a03801982511681845116808217855250505050505090500183815260200182805190602001908083835b6020831061131557805182526020820191506020810190506020830392506112f2565b6001836020036101000a03801982511681845116808217855250505050505090500194505050505060405160208183030381529060405280519060200120611f13565b8199505050505050505050509392505050565b60008073ffffffffffffffffffffffffffffffffffffffff16600160009054906101000a900473ffffffffffffffffffffffffffffffffffffffff1673ffffffffffffffffffffffffffffffffffffffff1614806113f3575060006113f1600160009054906101000a900473ffffffffffffffffffffffffffffffffffffffff16611f2f565b145b15611404576114026000611f3a565b505b600160009054906101000a900473ffffffffffffffffffffffffffffffffffffffff1673ffffffffffffffffffffffffffffffffffffffff166338cc48316040518163ffffffff1660e01b8152600401602060405180830381600087803b15801561146e57600080fd5b505af1158015611482573d6000803e3d6000fd5b505050506040513d602081101561149857600080fd5b810190808051906020019092919050505073ffffffffffffffffffffffffffffffffffffffff166000809054906101000a900473ffffffffffffffffffffffffffffffffffffffff1673ffffffffffffffffffffffffffffffffffffffff16146115e157600160009054906101000a900473ffffffffffffffffffffffffffffffffffffffff1673ffffffffffffffffffffffffffffffffffffffff166338cc48316040518163ffffffff1660e01b8152600401602060405180830381600087803b15801561156657600080fd5b505af115801561157a573d6000803e3d6000fd5b505050506040513d602081101561159057600080fd5b81019080805190602001909291905050506000806101000a81548173ffffffffffffffffffffffffffffffffffffffff021916908373ffffffffffffffffffffffffffffffffffffffff1602179055505b6000809054906101000a900473ffffffffffffffffffffffffffffffffffffffff1673ffffffffffffffffffffffffffffffffffffffff1663c281d19e6040518163ffffffff1660e01b815260040160206040518083038186803b15801561164857600080fd5b505afa15801561165c573d6000803e3d6000fd5b505050506040513d602081101561167257600080fd5b8101908080519060200190929190505050905090565b60006116ca83836040518060400160405280601881526020017f536166654d6174683a206d6f64756c6f206279207a65726f0000000000000000815250611f4b565b905092915050565b6000808314156116e55760009050611752565b60008284029050828482816116f657fe5b041461174d576040517f08c379a00000000000000000000000000000000000000000000000000000000081526004018080602001828103825260218152602001806130c66021913960400191505060405180910390fd5b809150505b92915050565b600061179a83836040518060400160405280601e81526020017f536166654d6174683a207375627472616374696f6e206f766572666c6f77000081525061200c565b905092915050565b600080828401905083811015611820576040517f08c379a000000000000000000000000000000000000000000000000000000000815260040180806020018281038252601b8152602001807f536166654d6174683a206164646974696f6e206f766572666c6f77000000000081525060200191505060405180910390fd5b8091505092915050565b60008073ffffffffffffffffffffffffffffffffffffffff16600160009054906101000a900473ffffffffffffffffffffffffffffffffffffffff1673ffffffffffffffffffffffffffffffffffffffff1614806118b2575060006118b0600160009054906101000a900473ffffffffffffffffffffffffffffffffffffffff16611f2f565b145b156118c3576118c16000611f3a565b505b600160009054906101000a900473ffffffffffffffffffffffffffffffffffffffff1673ffffffffffffffffffffffffffffffffffffffff166338cc48316040518163ffffffff1660e01b8152600401602060405180830381600087803b15801561192d57600080fd5b505af1158015611941573d6000803e3d6000fd5b505050506040513d602081101561195757600080fd5b810190808051906020019092919050505073ffffffffffffffffffffffffffffffffffffffff166000809054906101000a900473ffffffffffffffffffffffffffffffffffffffff1673ffffffffffffffffffffffffffffffffffffffff1614611aa057600160009054906101000a900473ffffffffffffffffffffffffffffffffffffffff1673ffffffffffffffffffffffffffffffffffffffff166338cc48316040518163ffffffff1660e01b8152600401602060405180830381600087803b158015611a2557600080fd5b505af1158015611a39573d6000803e3d6000fd5b505050506040513d6020811015611a4f57600080fd5b81019080805190602001909291905050506000806101000a81548173ffffffffffffffffffffffffffffffffffffffff021916908373ffffffffffffffffffffffffffffffffffffffff1602179055505b6000809054906101000a900473ffffffffffffffffffffffffffffffffffffffff1673ffffffffffffffffffffffffffffffffffffffff1663abaa5f3e6040518163ffffffff1660e01b815260040160206040518083038186803b158015611b0757600080fd5b505afa158015611b1b573d6000803e3d6000fd5b505050506040513d6020811015611b3157600080fd5b8101908080519060200190929190505050905090565b6060600082850190508084511015611b5e57600080fd5b600086602001905060008460200190505b868860200101821015611b975781890151808288015250602082019150602081019050611b6f565b85935050505095945050505050565b60008073ffffffffffffffffffffffffffffffffffffffff16600160009054906101000a900473ffffffffffffffffffffffffffffffffffffffff1673ffffffffffffffffffffffffffffffffffffffff161480611c2e57506000611c2c600160009054906101000a900473ffffffffffffffffffffffffffffffffffffffff16611f2f565b145b15611c3f57611c3d6000611f3a565b505b600160009054906101000a900473ffffffffffffffffffffffffffffffffffffffff1673ffffffffffffffffffffffffffffffffffffffff166338cc48316040518163ffffffff1660e01b8152600401602060405180830381600087803b158015611ca957600080fd5b505af1158015611cbd573d6000803e3d6000fd5b505050506040513d6020811015611cd357600080fd5b810190808051906020019092919050505073ffffffffffffffffffffffffffffffffffffffff166000809054906101000a900473ffffffffffffffffffffffffffffffffffffffff1673ffffffffffffffffffffffffffffffffffffffff1614611e1c57600160009054906101000a900473ffffffffffffffffffffffffffffffffffffffff1673ffffffffffffffffffffffffffffffffffffffff166338cc48316040518163ffffffff1660e01b8152600401602060405180830381600087803b158015611da157600080fd5b505af1158015611db5573d6000803e3d6000fd5b505050506040513d6020811015611dcb57600080fd5b81019080805190602001909291905050506000806101000a81548173ffffffffffffffffffffffffffffffffffffffff021916908373ffffffffffffffffffffffffffffffffffffffff1602179055505b60606004604051908082528060200260200182016040528015611e5357816020015b6060815260200190600190039081611e3e5790505b50905083600060048110611e6357fe5b602002015181600081518110611e7557fe5b602002602001018190525083600160048110611e8d57fe5b602002015181600181518110611e9f57fe5b602002602001018190525083600260048110611eb757fe5b602002015181600281518110611ec957fe5b602002602001018190525083600360048110611ee157fe5b602002015181600381518110611ef357fe5b6020026020010181905250611f098582856120cc565b9150509392505050565b8060036000848152602001908152602001600020819055505050565b6000813b9050919050565b6000611f4461262e565b9050919050565b6000808314158290611ff8576040517f08c379a00000000000000000000000000000000000000000000000000000000081526004018080602001828103825283818151815260200191508051906020019080838360005b83811015611fbd578082015181840152602081019050611fa2565b50505050905090810190601f168015611fea5780820380516001836020036101000a031916815260200191505b509250505060405180910390fd5b5082848161200257fe5b0690509392505050565b60008383111582906120b9576040517f08c379a00000000000000000000000000000000000000000000000000000000081526004018080602001828103825283818151815260200191508051906020019080838360005b8381101561207e578082015181840152602081019050612063565b50505050905090810190601f1680156120ab5780820380516001836020036101000a031916815260200191505b509250505060405180910390fd5b5060008385039050809150509392505050565b60008073ffffffffffffffffffffffffffffffffffffffff16600160009054906101000a900473ffffffffffffffffffffffffffffffffffffffff1673ffffffffffffffffffffffffffffffffffffffff16148061215457506000612152600160009054906101000a900473ffffffffffffffffffffffffffffffffffffffff16611f2f565b145b15612165576121636000611f3a565b505b600160009054906101000a900473ffffffffffffffffffffffffffffffffffffffff1673ffffffffffffffffffffffffffffffffffffffff166338cc48316040518163ffffffff1660e01b8152600401602060405180830381600087803b1580156121cf57600080fd5b505af11580156121e3573d6000803e3d6000fd5b505050506040513d60208110156121f957600080fd5b810190808051906020019092919050505073ffffffffffffffffffffffffffffffffffffffff166000809054906101000a900473ffffffffffffffffffffffffffffffffffffffff1673ffffffffffffffffffffffffffffffffffffffff161461234257600160009054906101000a900473ffffffffffffffffffffffffffffffffffffffff1673ffffffffffffffffffffffffffffffffffffffff166338cc48316040518163ffffffff1660e01b8152600401602060405180830381600087803b1580156122c757600080fd5b505af11580156122db573d6000803e3d6000fd5b505050506040513d60208110156122f157600080fd5b81019080805190602001909291905050506000806101000a81548173ffffffffffffffffffffffffffffffffffffffff021916908373ffffffffffffffffffffffffffffffffffffffff1602179055505b60008060009054906101000a900473ffffffffffffffffffffffffffffffffffffffff1673ffffffffffffffffffffffffffffffffffffffff16632ef3accc86856040518363ffffffff1660e01b81526004018080602001838152602001828103825284818151815260200191508051906020019080838360005b838110156123d85780820151818401526020810190506123bd565b50505050905090810190601f1680156124055780820380516001836020036101000a031916815260200191505b509350505050602060405180830381600087803b15801561242557600080fd5b505af1158015612439573d6000803e3d6000fd5b505050506040513d602081101561244f57600080fd5b81019080805190602001909291905050509050823a02670de0b6b3a764000001811115612482576000801b915050612627565b606061248d85612b85565b90506000809054906101000a900473ffffffffffffffffffffffffffffffffffffffff1673ffffffffffffffffffffffffffffffffffffffff1663c55c1cb68360008985896040518663ffffffff1660e01b8152600401808581526020018060200180602001848152602001838103835286818151815260200191508051906020019080838360005b83811015612531578082015181840152602081019050612516565b50505050905090810190601f16801561255e5780820380516001836020036101000a031916815260200191505b50838103825285818151815260200191508051906020019080838360005b8381101561259757808201518184015260208101905061257c565b50505050905090810190601f1680156125c45780820380516001836020036101000a031916815260200191505b5096505050505050506020604051808303818588803b1580156125e657600080fd5b505af11580156125fa573d6000803e3d6000fd5b50505050506040513d602081101561261157600080fd5b8101908080519060200190929190505050925050505b9392505050565b60008061264e731d3b2638a7cc9f2cb3d298a3da7a90b67e5506ed611f2f565b11156126f057731d3b2638a7cc9f2cb3d298a3da7a90b67e5506ed600160006101000a81548173ffffffffffffffffffffffffffffffffffffffff021916908373ffffffffffffffffffffffffffffffffffffffff1602179055506126e76040518060400160405280600b81526020017f6574685f6d61696e6e6574000000000000000000000000000000000000000000815250612c05565b60019050612b82565b600061270f73c03a2615d5efaf5f49f60b7bb6583eaec212fdf1611f2f565b11156127b15773c03a2615d5efaf5f49f60b7bb6583eaec212fdf1600160006101000a81548173ffffffffffffffffffffffffffffffffffffffff021916908373ffffffffffffffffffffffffffffffffffffffff1602179055506127a86040518060400160405280600c81526020017f6574685f726f707374656e330000000000000000000000000000000000000000815250612c05565b60019050612b82565b60006127d073b7a07bcf2ba2f2703b24c0691b5278999c59ac7e611f2f565b11156128725773b7a07bcf2ba2f2703b24c0691b5278999c59ac7e600160006101000a81548173ffffffffffffffffffffffffffffffffffffffff021916908373ffffffffffffffffffffffffffffffffffffffff1602179055506128696040518060400160405280600981526020017f6574685f6b6f76616e0000000000000000000000000000000000000000000000815250612c05565b60019050612b82565b600061289173146500cfd35b22e4a392fe0adc06de1a1368ed48611f2f565b11156129335773146500cfd35b22e4a392fe0adc06de1a1368ed48600160006101000a81548173ffffffffffffffffffffffffffffffffffffffff021916908373ffffffffffffffffffffffffffffffffffffffff16021790555061292a6040518060400160405280600b81526020017f6574685f72696e6b656279000000000000000000000000000000000000000000815250612c05565b60019050612b82565b600061295273a2998efd205fb9d4b4963afb70778d6354ad3a41611f2f565b11156129f45773a2998efd205fb9d4b4963afb70778d6354ad3a41600160006101000a81548173ffffffffffffffffffffffffffffffffffffffff021916908373ffffffffffffffffffffffffffffffffffffffff1602179055506129eb6040518060400160405280600a81526020017f6574685f676f65726c6900000000000000000000000000000000000000000000815250612c05565b60019050612b82565b6000612a13736f485c8bf6fc43ea212e93bbf8ce046c7f1cb475611f2f565b1115612a7757736f485c8bf6fc43ea212e93bbf8ce046c7f1cb475600160006101000a81548173ffffffffffffffffffffffffffffffffffffffff021916908373ffffffffffffffffffffffffffffffffffffffff16021790555060019050612b82565b6000612a967320e12a1f859b3feae5fb2a0a32c18f5a65555bbf611f2f565b1115612afa577320e12a1f859b3feae5fb2a0a32c18f5a65555bbf600160006101000a81548173ffffffffffffffffffffffffffffffffffffffff021916908373ffffffffffffffffffffffffffffffffffffffff16021790555060019050612b82565b6000612b197351efaf4c8b3c9afbd5ab9f4bbc82784ab6ef8faa611f2f565b1115612b7d577351efaf4c8b3c9afbd5ab9f4bbc82784ab6ef8faa600160006101000a81548173ffffffffffffffffffffffffffffffffffffffff021916908373ffffffffffffffffffffffffffffffffffffffff16021790555060019050612b82565b600090505b90565b6060612b8f612c1f565b612b97613006565b612ba381610400612c2b565b612bac81612c75565b60008090505b8351811015612bee57612be1848281518110612bca57fe5b602002602001015183612c8390919063ffffffff16565b8080600101915050612bb2565b50612bf881612ca8565b8060000151915050919050565b8060029080519060200190612c1b929190613020565b5050565b60405180590338823950565b6000819050600060208281612c3c57fe5b0614612c555760208181612c4c57fe5b06602003810190505b808360200181815250506040518084526000815281810160405250505050565b612c80816004612cb6565b50565b612c908260028351612cd7565b612ca38183612e1790919063ffffffff16565b505050565b612cb3816007612cb6565b50565b612cd3601f60058360ff16901b1783612ec290919063ffffffff16565b5050565b60178111612d0357612cfe8160058460ff16901b60ff161784612ec290919063ffffffff16565b612e12565b60ff8111612d4457612d28601860058460ff16901b1784612ec290919063ffffffff16565b612d3e81600185612f029092919063ffffffff16565b50612e11565b61ffff8111612d8657612d6a601960058460ff16901b1784612ec290919063ffffffff16565b612d8081600285612f029092919063ffffffff16565b50612e10565b63ffffffff8111612dca57612dae601a60058460ff16901b1784612ec290919063ffffffff16565b612dc481600485612f029092919063ffffffff16565b50612e0f565b67ffffffffffffffff8111612e0e57612df6601b60058460ff16901b1784612ec290919063ffffffff16565b612e0c81600885612f029092919063ffffffff16565b505b5b5b5b5b505050565b612e1f613006565b82602001518360000151518351011115612e4f57612e4e836002612e4886602001518651612f69565b02612f85565b5b60008060008451905085518051602081830101945086518101825260208701935050505b60208110612e965781518352602083019250602082019150602081039050612e73565b60006001826020036101000a039050801983511681855116818117865250508694505050505092915050565b81602001516001836000015151011115612ee857612ee7826002846020015102612f85565b5b815180516020818301018381536001820183525050505050565b612f0a613006565b836020015184600001515183011115612f3857612f37846002612f31876020015186612f69565b02612f85565b5b60006001836101000a0390508451805184818301018684198251161781528582018352505050849150509392505050565b600081831115612f7b57829050612f7f565b8190505b92915050565b606082600001519050612f988383612c2b565b612fa28382612e17565b50505050565b6040518060600160405280600073ffffffffffffffffffffffffffffffffffffffff16815260200160008152602001600081525090565b60405180608001604052806004905b6060815260200190600190039081612fee5790505090565b604051806040016040528060608152602001600081525090565b828054600181600116156101000203166002900490600052602060002090601f016020900481019282601f1061306157805160ff191683800117855561308f565b8280016001018555821561308f579182015b8281111561308e578251825591602001919060010190613073565b5b50905061309c91906130a0565b5090565b6130c291905b808211156130be5760008160009055506001016130a6565b5090565b9056fe536166654d6174683a206d756c7469706c69636174696f6e206f766572666c6f774d6573736167652073656e742e2057616974696e6720666f7220616e20616e737765722e2e2ea265627a7a72315820e991925ff6d3f5bbeb30cf8032fdec7f106b3098394dd54f8fa6889f49b519df64736f6c63430005100032",
    "source": "import \"./provableAPI_0.5.sol\";\nimport \"./SafeMath.sol\";\n\npragma solidity =0.5.16;\n\ncontract Coinflip is usingProvable {\n    \n    using SafeMath for uint;\n    \n    struct Bet {\n        address playerAddress;\n        uint betValue;\n        uint headsTails;\n    }\n    \n    mapping(address => uint) private playerWinnings;\n    mapping (address => Bet) private waiting;\n    mapping (bytes32 => address) private afterWaiting;\n    \n    event logNewProvableQuery(string description);\n    event result(address caller, uint256 amount, bool won);\n    \n    uint public contractBalance;\n    uint256 constant NUM_RANDOM_BYTES_REQUESTED = 1;\n    \n    address payable public owner = msg.sender;\n\n    \n    constructor() public payable{\n        owner = msg.sender;\n        contractBalance = msg.value;\n    }\n    \n    \n    modifier onlyOwner() {\n        require(owner == msg.sender);\n        _;\n    }\n    \n    \nfunction flip(uint256 oneZero) public payable {\n        //Minimum .001 eth to maximum 10 eth\n        require(contractBalance > msg.value, \"We don't have enough funds\");\n\n        //Calling provable library function\n        uint256 QUERY_EXECUTION_DELAY = 0;\n        uint256 GAS_FOR_CALLBACK = 200000;\n        bytes32 queryId = provable_newRandomDSQuery(\n            QUERY_EXECUTION_DELAY,\n            NUM_RANDOM_BYTES_REQUESTED,\n            GAS_FOR_CALLBACK\n            );\n        emit logNewProvableQuery(\"Message sent. Waiting for an answer...\");\n        \n        afterWaiting[queryId] = msg.sender;\n\n\n        //Adding user to mapping with address, bet, and queryID\n        Bet memory newBetter;\n        newBetter.playerAddress = msg.sender;\n        newBetter.betValue = msg.value;\n        newBetter.headsTails = oneZero;\n\n        waiting[msg.sender] = newBetter;\n    }\n    \n    function __callback(bytes32 _queryId, string memory _result /*bytes memory _proof*/) public {\n        require(msg.sender == provable_cbAddress());\n        \n        uint256 flipResult = SafeMath.mod(uint256(keccak256(abi.encodePacked(_result))), 2);\n\n        //linking new mapping with new struct\n        address _player = afterWaiting[_queryId];\n        \n        Bet memory postBet = waiting[_player];\n        \n        if(flipResult == postBet.headsTails){\n            uint winAmount = SafeMath.mul(postBet.betValue, 2);\n            contractBalance = SafeMath.sub(contractBalance, postBet.betValue);\n            playerWinnings[_player] = SafeMath.add(playerWinnings[_player], winAmount);\n            emit result(_player, winAmount, true);\n        } else {\n            contractBalance = SafeMath.add(contractBalance, postBet.betValue);\n            emit result(_player, postBet.betValue, false);\n        }\n    }\n    \n    function withdrawUserWinnings() public {\n        require(playerWinnings[msg.sender] > 0, \"No funds to withdraw\");\n        uint toTransfer = playerWinnings[msg.sender];\n        playerWinnings[msg.sender] = 0;\n        msg.sender.transfer(toTransfer);\n    }\n    \n    function getWinningsBalance() public view returns(uint){\n        return playerWinnings[msg.sender];\n    }\n    \n    //Owner functions\n    \n    function fundContract() public payable onlyOwner {\n        contractBalance = SafeMath.add(contractBalance, msg.value);\n    }\n    \n    function fundWinnings() public payable onlyOwner {\n        playerWinnings[msg.sender] = SafeMath.add(playerWinnings[msg.sender], msg.value);\n    }\n    \n    function withdrawAll() public onlyOwner {\n        uint toTransfer = contractBalance;\n        contractBalance = 0;\n        msg.sender.transfer(toTransfer);\n    }\n\n}",
    "sourcePath": "/Users/andrewfleming/Documents/ethereum-course-advanced/project-coinflip-v-6/contracts/Coinflip.sol",
    "compiler": {
        "name": "solc",
        "version": "0.5.16+commit.9c3226ce.Emscripten.clang"
    },
    "schemaVersion": "3.2.5",
    "updatedAt": "2020-10-16T08:17:11.827Z",
    "networkType": "ethereum",
    "devdoc": {
        "methods": {}
    },
    "userdoc": {
        "methods": {}
    }
}