{
  "contractName": "Coinflip",
  "abi": [
    {
      "inputs": [],
      "payable": true,
      "stateMutability": "payable",
      "type": "constructor"
    },
    {
      "anonymous": false,
      "inputs": [
        {
          "indexed": true,
          "internalType": "bytes32",
          "name": "queryId",
          "type": "bytes32"
        },
        {
          "indexed": false,
          "internalType": "string",
          "name": "description",
          "type": "string"
        },
        {
          "indexed": false,
          "internalType": "uint256",
          "name": "amount",
          "type": "uint256"
        }
      ],
      "name": "callbackReceived",
      "type": "event"
    },
    {
      "anonymous": false,
      "inputs": [
        {
          "indexed": false,
          "internalType": "string",
          "name": "description",
          "type": "string"
        }
      ],
      "name": "logNewProvableQuery",
      "type": "event"
    },
    {
      "anonymous": false,
      "inputs": [
        {
          "indexed": false,
          "internalType": "address",
          "name": "caller",
          "type": "address"
        },
        {
          "indexed": true,
          "internalType": "bytes32",
          "name": "queryId",
          "type": "bytes32"
        }
      ],
      "name": "sentQueryId",
      "type": "event"
    },
    {
      "anonymous": false,
      "inputs": [
        {
          "indexed": true,
          "internalType": "address",
          "name": "caller",
          "type": "address"
        },
        {
          "indexed": false,
          "internalType": "uint256",
          "name": "amount",
          "type": "uint256"
        }
      ],
      "name": "userWithdrawal",
      "type": "event"
    },
    {
      "constant": true,
      "inputs": [],
      "name": "contractBalance",
      "outputs": [
        {
          "internalType": "uint256",
          "name": "",
          "type": "uint256"
        }
      ],
      "payable": false,
      "stateMutability": "view",
      "type": "function"
    },
    {
      "constant": true,
      "inputs": [],
      "name": "owner",
      "outputs": [
        {
          "internalType": "address payable",
          "name": "",
          "type": "address"
        }
      ],
      "payable": false,
      "stateMutability": "view",
      "type": "function"
    },
    {
      "constant": false,
      "inputs": [
        {
          "internalType": "uint256",
          "name": "oneZero",
          "type": "uint256"
        }
      ],
      "name": "flip",
      "outputs": [],
      "payable": true,
      "stateMutability": "payable",
      "type": "function"
    },
    {
      "constant": false,
      "inputs": [
        {
          "internalType": "bytes32",
          "name": "_queryId",
          "type": "bytes32"
        },
        {
          "internalType": "string",
          "name": "_result",
          "type": "string"
        }
      ],
      "name": "__callback",
      "outputs": [],
      "payable": false,
      "stateMutability": "nonpayable",
      "type": "function"
    },
    {
      "constant": false,
      "inputs": [
        {
          "internalType": "bytes32",
          "name": "_myid",
          "type": "bytes32"
        },
        {
          "internalType": "string",
          "name": "_result",
          "type": "string"
        },
        {
          "internalType": "bytes",
          "name": "_proof",
          "type": "bytes"
        }
      ],
      "name": "__callback",
      "outputs": [],
      "payable": false,
      "stateMutability": "nonpayable",
      "type": "function"
    },
    {
      "constant": false,
      "inputs": [],
      "name": "withdrawUserWinnings",
      "outputs": [],
      "payable": false,
      "stateMutability": "nonpayable",
      "type": "function"
    },
    {
      "constant": true,
      "inputs": [],
      "name": "getWinningsBalance",
      "outputs": [
        {
          "internalType": "uint256",
          "name": "",
          "type": "uint256"
        }
      ],
      "payable": false,
      "stateMutability": "view",
      "type": "function"
    },
    {
      "constant": false,
      "inputs": [],
      "name": "fundContract",
      "outputs": [],
      "payable": true,
      "stateMutability": "payable",
      "type": "function"
    },
    {
      "constant": false,
      "inputs": [],
      "name": "fundWinnings",
      "outputs": [],
      "payable": true,
      "stateMutability": "payable",
      "type": "function"
    },
    {
      "constant": false,
      "inputs": [],
      "name": "withdrawAll",
      "outputs": [],
      "payable": false,
      "stateMutability": "nonpayable",
      "type": "function"
    }
  ],
  "bytecode": "0x608060405233600960006101000a81548173ffffffffffffffffffffffffffffffffffffffff021916908373ffffffffffffffffffffffffffffffffffffffff16021790555033600960006101000a81548173ffffffffffffffffffffffffffffffffffffffff021916908373ffffffffffffffffffffffffffffffffffffffff1602179055503460088190555061362a8061009c6000396000f3fe6080604052600436106100915760003560e01c80638b7afe2e116100595780638b7afe2e146103415780638da5cb5b1461036c578063a5ce8496146103c3578063b3e25412146103cd578063bd097e21146103e457610091565b8063221e885d1461009657806327dc297e146100c457806338bbfa5014610196578063741c0a0f146102ff578063853828b61461032a575b600080fd5b6100c2600480360360208110156100ac57600080fd5b81019080803590602001909291905050506103ee565b005b3480156100d057600080fd5b50610194600480360360408110156100e757600080fd5b81019080803590602001909291908035906020019064010000000081111561010e57600080fd5b82018360208201111561012057600080fd5b8035906020019184600183028401116401000000008311171561014257600080fd5b91908080601f016020809104026020016040519081016040528093929190818152602001838380828437600081840152601f19601f8201169050808301925050505050505091929192905050506106d3565b005b3480156101a257600080fd5b506102fd600480360360608110156101b957600080fd5b8101908080359060200190929190803590602001906401000000008111156101e057600080fd5b8201836020820111156101f257600080fd5b8035906020019184600183028401116401000000008311171561021457600080fd5b91908080601f016020809104026020016040519081016040528093929190818152602001838380828437600081840152601f19601f8201169050808301925050505050505091929192908035906020019064010000000081111561027757600080fd5b82018360208201111561028957600080fd5b803590602001918460018302840111640100000000831117156102ab57600080fd5b91908080601f016020809104026020016040519081016040528093929190818152602001838380828437600081840152601f19601f820116905080830192505050505050509192919290505050610aac565b005b34801561030b57600080fd5b50610314610acf565b6040518082815260200191505060405180910390f35b34801561033657600080fd5b5061033f610b16565b005b34801561034d57600080fd5b50610356610bc9565b6040518082815260200191505060405180910390f35b34801561037857600080fd5b50610381610bcf565b604051808273ffffffffffffffffffffffffffffffffffffffff1673ffffffffffffffffffffffffffffffffffffffff16815260200191505060405180910390f35b6103cb610bf5565b005b3480156103d957600080fd5b506103e2610cdd565b005b6103ec610eb3565b005b3460085411610465576040517f08c379a000000000000000000000000000000000000000000000000000000000815260040180806020018281038252601a8152602001807f576520646f6e2774206861766520656e6f7567682066756e647300000000000081525060200191505060405180910390fd5b60006104a56040518060400160405280600681526020017f52616e646f6d0000000000000000000000000000000000000000000000000000815250610f21565b90506000809050600062030d40905060006104c2836001846112b2565b90507f94f2559b5e2b297de3db1587daf2352e872ada3dad01dab9ee3733592fa22ed36040518080602001828103825260268152602001806135d06026913960400191505060405180910390a1807fa19bd41ab5283f5176273e63c8e89f19b8ec4a5c787a6604f651632c71e0f29c33604051808273ffffffffffffffffffffffffffffffffffffffff1673ffffffffffffffffffffffffffffffffffffffff16815260200191505060405180910390a2336007600083815260200190815260200160002060006101000a81548173ffffffffffffffffffffffffffffffffffffffff021916908373ffffffffffffffffffffffffffffffffffffffff1602179055506105cd61348a565b33816000019073ffffffffffffffffffffffffffffffffffffffff16908173ffffffffffffffffffffffffffffffffffffffff168152505034816020018181525050858160400181815250508481606001818152505080600660003373ffffffffffffffffffffffffffffffffffffffff1673ffffffffffffffffffffffffffffffffffffffff16815260200190815260200160002060008201518160000160006101000a81548173ffffffffffffffffffffffffffffffffffffffff021916908373ffffffffffffffffffffffffffffffffffffffff160217905550602082015181600101556040820151816002015560608201518160030155905050505050505050565b6106db61184d565b73ffffffffffffffffffffffffffffffffffffffff163373ffffffffffffffffffffffffffffffffffffffff161461071257600080fd5b6000610793826040516020018082805190602001908083835b6020831061074e578051825260208201915060208101905060208303925061072b565b6001836020036101000a0380198251168184511680821785525050505050509050019150506040516020818303038152906040528051906020012060001c6002611b6a565b905060006007600085815260200190815260200160002060009054906101000a900473ffffffffffffffffffffffffffffffffffffffff1690506107d561348a565b600660008373ffffffffffffffffffffffffffffffffffffffff1673ffffffffffffffffffffffffffffffffffffffff1681526020019081526020016000206040518060800160405290816000820160009054906101000a900473ffffffffffffffffffffffffffffffffffffffff1673ffffffffffffffffffffffffffffffffffffffff1673ffffffffffffffffffffffffffffffffffffffff168152602001600182015481526020016002820154815260200160038201548152505090506000816020015114156108a757610aa5565b8060400151831415610a025760006108da6108c783602001516002611bb4565b6108d584606001513a611c3a565b611cc2565b90506108f56008546108f084602001513a611c3a565b611cc2565b600881905550610944600560008573ffffffffffffffffffffffffffffffffffffffff1673ffffffffffffffffffffffffffffffffffffffff1681526020019081526020016000205482611c3a565b600560008573ffffffffffffffffffffffffffffffffffffffff1673ffffffffffffffffffffffffffffffffffffffff16815260200190815260200160002081905550857f04cab3657f64d71f15c1887100165dadd28bc26d3a77255585ac5e9f7dedab0d83602001516040518080602001838152602001828103825260068152602001807f57696e6e657200000000000000000000000000000000000000000000000000008152506020019250505060405180910390a250610aa4565b610a28610a156008548360200151611c3a565b610a2383606001513a611c3a565b611cc2565b600881905550847f04cab3657f64d71f15c1887100165dadd28bc26d3a77255585ac5e9f7dedab0d82602001516040518080602001838152602001828103825260058152602001807f4c6f7365720000000000000000000000000000000000000000000000000000008152506020019250505060405180910390a25b5b5050505050565b6000801b600360008060001b815260200190815260200160002081905550505050565b6000600560003373ffffffffffffffffffffffffffffffffffffffff1673ffffffffffffffffffffffffffffffffffffffff16815260200190815260200160002054905090565b3373ffffffffffffffffffffffffffffffffffffffff16600960009054906101000a900473ffffffffffffffffffffffffffffffffffffffff1673ffffffffffffffffffffffffffffffffffffffff1614610b7057600080fd5b6000600854905060006008819055503373ffffffffffffffffffffffffffffffffffffffff166108fc829081150290604051600060405180830381858888f19350505050158015610bc5573d6000803e3d6000fd5b5050565b60085481565b600960009054906101000a900473ffffffffffffffffffffffffffffffffffffffff1681565b3373ffffffffffffffffffffffffffffffffffffffff16600960009054906101000a900473ffffffffffffffffffffffffffffffffffffffff1673ffffffffffffffffffffffffffffffffffffffff1614610c4f57600080fd5b610c98600560003373ffffffffffffffffffffffffffffffffffffffff1673ffffffffffffffffffffffffffffffffffffffff1681526020019081526020016000205434611c3a565b600560003373ffffffffffffffffffffffffffffffffffffffff1673ffffffffffffffffffffffffffffffffffffffff16815260200190815260200160002081905550565b6000600560003373ffffffffffffffffffffffffffffffffffffffff1673ffffffffffffffffffffffffffffffffffffffff1681526020019081526020016000205411610d92576040517f08c379a00000000000000000000000000000000000000000000000000000000081526004018080602001828103825260148152602001807f4e6f2066756e647320746f20776974686472617700000000000000000000000081525060200191505060405180910390fd5b6000600560003373ffffffffffffffffffffffffffffffffffffffff1673ffffffffffffffffffffffffffffffffffffffff1681526020019081526020016000205490506000600560003373ffffffffffffffffffffffffffffffffffffffff1673ffffffffffffffffffffffffffffffffffffffff168152602001908152602001600020819055503373ffffffffffffffffffffffffffffffffffffffff166108fc829081150290604051600060405180830381858888f19350505050158015610e61573d6000803e3d6000fd5b503373ffffffffffffffffffffffffffffffffffffffff167f42b2a4ad2d4bdf57e819ccd3c6ce6d0a8d6d20b5d3dbf94ef2b05c42f523c610826040518082815260200191505060405180910390a250565b3373ffffffffffffffffffffffffffffffffffffffff16600960009054906101000a900473ffffffffffffffffffffffffffffffffffffffff1673ffffffffffffffffffffffffffffffffffffffff1614610f0d57600080fd5b610f1960085434611c3a565b600881905550565b60008073ffffffffffffffffffffffffffffffffffffffff16600160009054906101000a900473ffffffffffffffffffffffffffffffffffffffff1673ffffffffffffffffffffffffffffffffffffffff161480610fa957506000610fa7600160009054906101000a900473ffffffffffffffffffffffffffffffffffffffff16611d0c565b145b15610fba57610fb86000611d17565b505b600160009054906101000a900473ffffffffffffffffffffffffffffffffffffffff1673ffffffffffffffffffffffffffffffffffffffff166338cc48316040518163ffffffff1660e01b8152600401602060405180830381600087803b15801561102457600080fd5b505af1158015611038573d6000803e3d6000fd5b505050506040513d602081101561104e57600080fd5b810190808051906020019092919050505073ffffffffffffffffffffffffffffffffffffffff166000809054906101000a900473ffffffffffffffffffffffffffffffffffffffff1673ffffffffffffffffffffffffffffffffffffffff161461119757600160009054906101000a900473ffffffffffffffffffffffffffffffffffffffff1673ffffffffffffffffffffffffffffffffffffffff166338cc48316040518163ffffffff1660e01b8152600401602060405180830381600087803b15801561111c57600080fd5b505af1158015611130573d6000803e3d6000fd5b505050506040513d602081101561114657600080fd5b81019080805190602001909291905050506000806101000a81548173ffffffffffffffffffffffffffffffffffffffff021916908373ffffffffffffffffffffffffffffffffffffffff1602179055505b6000809054906101000a900473ffffffffffffffffffffffffffffffffffffffff1673ffffffffffffffffffffffffffffffffffffffff1663524f3889836040518263ffffffff1660e01b81526004018080602001828103825283818151815260200191508051906020019080838360005b83811015611224578082015181840152602081019050611209565b50505050905090810190601f1680156112515780820380516001836020036101000a031916815260200191505b5092505050602060405180830381600087803b15801561127057600080fd5b505af1158015611284573d6000803e3d6000fd5b505050506040513d602081101561129a57600080fd5b81019080805190602001909291905050509050919050565b600080831180156112c4575060208311155b6112cd57600080fd5b600a84029350606060016040519080825280601f01601f1916602001820160405280156113095781602001600182028038833980820191505090505b5090508360f81b8160008151811061131d57fe5b60200101907effffffffffffffffffffffffffffffffffffffffffffffffffffffffffffff1916908160001a905350606060206040519080825280601f01601f1916602001820160405280156113825781602001600182028038833980820191505090505b509050606060206040519080825280601f01601f1916602001820160405280156113bb5781602001600182028038833980820191505090505b50905060006113c8611d28565b905060208352424118600143034018602084015260208252806020830152606060206040519080825280601f01601f19166020018201604052801561141c5781602001600182028038833980820191505090505b509050886020820152606060086040519080825280601f01601f19166020018201604052801561145b5781602001600182028038833980820191505090505b50905061146e8260186008846000612045565b506114776134c8565b604051806080016040528087815260200188815260200186815260200184815250905060006114dc6040518060400160405280600681526020017f72616e646f6d0000000000000000000000000000000000000000000000000000815250838c6120a4565b9050606060086040519080825280601f01601f1916602001820160405280156115145781602001600182028038833980820191505090505b50905060208401517f0100000000000000000000000000000000000000000000000000000000000000810460278301537e01000000000000000000000000000000000000000000000000000000000000810460268301537d010000000000000000000000000000000000000000000000000000000000810460258301537c0100000000000000000000000000000000000000000000000000000000810460248301537b01000000000000000000000000000000000000000000000000000000810460238301537a01000000000000000000000000000000000000000000000000000081046022830153790100000000000000000000000000000000000000000000000000810460218301537801000000000000000000000000000000000000000000000000810460208301535061183a82828560016004811061165357fe5b602002015160028760006004811061166757fe5b60200201516040518082805190602001908083835b6020831061169f578051825260208201915060208101905060208303925061167c565b6001836020036101000a038019825116818451168082178552505050505050905001915050602060405180830381855afa1580156116e1573d6000803e3d6000fd5b5050506040513d60208110156116f657600080fd5b81019080805190602001909291905050508760026004811061171457fe5b60200201516040516020018085805190602001908083835b6020831061174f578051825260208201915060208101905060208303925061172c565b6001836020036101000a03801982511681845116808217855250505050505090500184805190602001908083835b602083106117a0578051825260208201915060208101905060208303925061177d565b6001836020036101000a03801982511681845116808217855250505050505090500183815260200182805190602001908083835b602083106117f757805182526020820191506020810190506020830392506117d4565b6001836020036101000a03801982511681845116808217855250505050505090500194505050505060405160208183030381529060405280519060200120612411565b8199505050505050505050509392505050565b60008073ffffffffffffffffffffffffffffffffffffffff16600160009054906101000a900473ffffffffffffffffffffffffffffffffffffffff1673ffffffffffffffffffffffffffffffffffffffff1614806118d5575060006118d3600160009054906101000a900473ffffffffffffffffffffffffffffffffffffffff16611d0c565b145b156118e6576118e46000611d17565b505b600160009054906101000a900473ffffffffffffffffffffffffffffffffffffffff1673ffffffffffffffffffffffffffffffffffffffff166338cc48316040518163ffffffff1660e01b8152600401602060405180830381600087803b15801561195057600080fd5b505af1158015611964573d6000803e3d6000fd5b505050506040513d602081101561197a57600080fd5b810190808051906020019092919050505073ffffffffffffffffffffffffffffffffffffffff166000809054906101000a900473ffffffffffffffffffffffffffffffffffffffff1673ffffffffffffffffffffffffffffffffffffffff1614611ac357600160009054906101000a900473ffffffffffffffffffffffffffffffffffffffff1673ffffffffffffffffffffffffffffffffffffffff166338cc48316040518163ffffffff1660e01b8152600401602060405180830381600087803b158015611a4857600080fd5b505af1158015611a5c573d6000803e3d6000fd5b505050506040513d6020811015611a7257600080fd5b81019080805190602001909291905050506000806101000a81548173ffffffffffffffffffffffffffffffffffffffff021916908373ffffffffffffffffffffffffffffffffffffffff1602179055505b6000809054906101000a900473ffffffffffffffffffffffffffffffffffffffff1673ffffffffffffffffffffffffffffffffffffffff1663c281d19e6040518163ffffffff1660e01b815260040160206040518083038186803b158015611b2a57600080fd5b505afa158015611b3e573d6000803e3d6000fd5b505050506040513d6020811015611b5457600080fd5b8101908080519060200190929190505050905090565b6000611bac83836040518060400160405280601881526020017f536166654d6174683a206d6f64756c6f206279207a65726f000000000000000081525061242d565b905092915050565b600080831415611bc75760009050611c34565b6000828402905082848281611bd857fe5b0414611c2f576040517f08c379a00000000000000000000000000000000000000000000000000000000081526004018080602001828103825260218152602001806135af6021913960400191505060405180910390fd5b809150505b92915050565b600080828401905083811015611cb8576040517f08c379a000000000000000000000000000000000000000000000000000000000815260040180806020018281038252601b8152602001807f536166654d6174683a206164646974696f6e206f766572666c6f77000000000081525060200191505060405180910390fd5b8091505092915050565b6000611d0483836040518060400160405280601e81526020017f536166654d6174683a207375627472616374696f6e206f766572666c6f7700008152506124ee565b905092915050565b6000813b9050919050565b6000611d216125ae565b9050919050565b60008073ffffffffffffffffffffffffffffffffffffffff16600160009054906101000a900473ffffffffffffffffffffffffffffffffffffffff1673ffffffffffffffffffffffffffffffffffffffff161480611db057506000611dae600160009054906101000a900473ffffffffffffffffffffffffffffffffffffffff16611d0c565b145b15611dc157611dbf6000611d17565b505b600160009054906101000a900473ffffffffffffffffffffffffffffffffffffffff1673ffffffffffffffffffffffffffffffffffffffff166338cc48316040518163ffffffff1660e01b8152600401602060405180830381600087803b158015611e2b57600080fd5b505af1158015611e3f573d6000803e3d6000fd5b505050506040513d6020811015611e5557600080fd5b810190808051906020019092919050505073ffffffffffffffffffffffffffffffffffffffff166000809054906101000a900473ffffffffffffffffffffffffffffffffffffffff1673ffffffffffffffffffffffffffffffffffffffff1614611f9e57600160009054906101000a900473ffffffffffffffffffffffffffffffffffffffff1673ffffffffffffffffffffffffffffffffffffffff166338cc48316040518163ffffffff1660e01b8152600401602060405180830381600087803b158015611f2357600080fd5b505af1158015611f37573d6000803e3d6000fd5b505050506040513d6020811015611f4d57600080fd5b81019080805190602001909291905050506000806101000a81548173ffffffffffffffffffffffffffffffffffffffff021916908373ffffffffffffffffffffffffffffffffffffffff1602179055505b6000809054906101000a900473ffffffffffffffffffffffffffffffffffffffff1673ffffffffffffffffffffffffffffffffffffffff1663abaa5f3e6040518163ffffffff1660e01b815260040160206040518083038186803b15801561200557600080fd5b505afa158015612019573d6000803e3d6000fd5b505050506040513d602081101561202f57600080fd5b8101908080519060200190929190505050905090565b606060008285019050808451101561205c57600080fd5b600086602001905060008460200190505b868860200101821015612095578189015180828801525060208201915060208101905061206d565b85935050505095945050505050565b60008073ffffffffffffffffffffffffffffffffffffffff16600160009054906101000a900473ffffffffffffffffffffffffffffffffffffffff1673ffffffffffffffffffffffffffffffffffffffff16148061212c5750600061212a600160009054906101000a900473ffffffffffffffffffffffffffffffffffffffff16611d0c565b145b1561213d5761213b6000611d17565b505b600160009054906101000a900473ffffffffffffffffffffffffffffffffffffffff1673ffffffffffffffffffffffffffffffffffffffff166338cc48316040518163ffffffff1660e01b8152600401602060405180830381600087803b1580156121a757600080fd5b505af11580156121bb573d6000803e3d6000fd5b505050506040513d60208110156121d157600080fd5b810190808051906020019092919050505073ffffffffffffffffffffffffffffffffffffffff166000809054906101000a900473ffffffffffffffffffffffffffffffffffffffff1673ffffffffffffffffffffffffffffffffffffffff161461231a57600160009054906101000a900473ffffffffffffffffffffffffffffffffffffffff1673ffffffffffffffffffffffffffffffffffffffff166338cc48316040518163ffffffff1660e01b8152600401602060405180830381600087803b15801561229f57600080fd5b505af11580156122b3573d6000803e3d6000fd5b505050506040513d60208110156122c957600080fd5b81019080805190602001909291905050506000806101000a81548173ffffffffffffffffffffffffffffffffffffffff021916908373ffffffffffffffffffffffffffffffffffffffff1602179055505b6060600460405190808252806020026020018201604052801561235157816020015b606081526020019060019003908161233c5790505b5090508360006004811061236157fe5b60200201518160008151811061237357fe5b60200260200101819052508360016004811061238b57fe5b60200201518160018151811061239d57fe5b6020026020010181905250836002600481106123b557fe5b6020020151816002815181106123c757fe5b6020026020010181905250836003600481106123df57fe5b6020020151816003815181106123f157fe5b6020026020010181905250612407858285612b05565b9150509392505050565b8060036000848152602001908152602001600020819055505050565b60008083141582906124da576040517f08c379a00000000000000000000000000000000000000000000000000000000081526004018080602001828103825283818151815260200191508051906020019080838360005b8381101561249f578082015181840152602081019050612484565b50505050905090810190601f1680156124cc5780820380516001836020036101000a031916815260200191505b509250505060405180910390fd5b508284816124e457fe5b0690509392505050565b600083831115829061259b576040517f08c379a00000000000000000000000000000000000000000000000000000000081526004018080602001828103825283818151815260200191508051906020019080838360005b83811015612560578082015181840152602081019050612545565b50505050905090810190601f16801561258d5780820380516001836020036101000a031916815260200191505b509250505060405180910390fd5b5060008385039050809150509392505050565b6000806125ce731d3b2638a7cc9f2cb3d298a3da7a90b67e5506ed611d0c565b111561267057731d3b2638a7cc9f2cb3d298a3da7a90b67e5506ed600160006101000a81548173ffffffffffffffffffffffffffffffffffffffff021916908373ffffffffffffffffffffffffffffffffffffffff1602179055506126676040518060400160405280600b81526020017f6574685f6d61696e6e6574000000000000000000000000000000000000000000815250613067565b60019050612b02565b600061268f73c03a2615d5efaf5f49f60b7bb6583eaec212fdf1611d0c565b11156127315773c03a2615d5efaf5f49f60b7bb6583eaec212fdf1600160006101000a81548173ffffffffffffffffffffffffffffffffffffffff021916908373ffffffffffffffffffffffffffffffffffffffff1602179055506127286040518060400160405280600c81526020017f6574685f726f707374656e330000000000000000000000000000000000000000815250613067565b60019050612b02565b600061275073b7a07bcf2ba2f2703b24c0691b5278999c59ac7e611d0c565b11156127f25773b7a07bcf2ba2f2703b24c0691b5278999c59ac7e600160006101000a81548173ffffffffffffffffffffffffffffffffffffffff021916908373ffffffffffffffffffffffffffffffffffffffff1602179055506127e96040518060400160405280600981526020017f6574685f6b6f76616e0000000000000000000000000000000000000000000000815250613067565b60019050612b02565b600061281173146500cfd35b22e4a392fe0adc06de1a1368ed48611d0c565b11156128b35773146500cfd35b22e4a392fe0adc06de1a1368ed48600160006101000a81548173ffffffffffffffffffffffffffffffffffffffff021916908373ffffffffffffffffffffffffffffffffffffffff1602179055506128aa6040518060400160405280600b81526020017f6574685f72696e6b656279000000000000000000000000000000000000000000815250613067565b60019050612b02565b60006128d273a2998efd205fb9d4b4963afb70778d6354ad3a41611d0c565b11156129745773a2998efd205fb9d4b4963afb70778d6354ad3a41600160006101000a81548173ffffffffffffffffffffffffffffffffffffffff021916908373ffffffffffffffffffffffffffffffffffffffff16021790555061296b6040518060400160405280600a81526020017f6574685f676f65726c6900000000000000000000000000000000000000000000815250613067565b60019050612b02565b6000612993736f485c8bf6fc43ea212e93bbf8ce046c7f1cb475611d0c565b11156129f757736f485c8bf6fc43ea212e93bbf8ce046c7f1cb475600160006101000a81548173ffffffffffffffffffffffffffffffffffffffff021916908373ffffffffffffffffffffffffffffffffffffffff16021790555060019050612b02565b6000612a167320e12a1f859b3feae5fb2a0a32c18f5a65555bbf611d0c565b1115612a7a577320e12a1f859b3feae5fb2a0a32c18f5a65555bbf600160006101000a81548173ffffffffffffffffffffffffffffffffffffffff021916908373ffffffffffffffffffffffffffffffffffffffff16021790555060019050612b02565b6000612a997351efaf4c8b3c9afbd5ab9f4bbc82784ab6ef8faa611d0c565b1115612afd577351efaf4c8b3c9afbd5ab9f4bbc82784ab6ef8faa600160006101000a81548173ffffffffffffffffffffffffffffffffffffffff021916908373ffffffffffffffffffffffffffffffffffffffff16021790555060019050612b02565b600090505b90565b60008073ffffffffffffffffffffffffffffffffffffffff16600160009054906101000a900473ffffffffffffffffffffffffffffffffffffffff1673ffffffffffffffffffffffffffffffffffffffff161480612b8d57506000612b8b600160009054906101000a900473ffffffffffffffffffffffffffffffffffffffff16611d0c565b145b15612b9e57612b9c6000611d17565b505b600160009054906101000a900473ffffffffffffffffffffffffffffffffffffffff1673ffffffffffffffffffffffffffffffffffffffff166338cc48316040518163ffffffff1660e01b8152600401602060405180830381600087803b158015612c0857600080fd5b505af1158015612c1c573d6000803e3d6000fd5b505050506040513d6020811015612c3257600080fd5b810190808051906020019092919050505073ffffffffffffffffffffffffffffffffffffffff166000809054906101000a900473ffffffffffffffffffffffffffffffffffffffff1673ffffffffffffffffffffffffffffffffffffffff1614612d7b57600160009054906101000a900473ffffffffffffffffffffffffffffffffffffffff1673ffffffffffffffffffffffffffffffffffffffff166338cc48316040518163ffffffff1660e01b8152600401602060405180830381600087803b158015612d0057600080fd5b505af1158015612d14573d6000803e3d6000fd5b505050506040513d6020811015612d2a57600080fd5b81019080805190602001909291905050506000806101000a81548173ffffffffffffffffffffffffffffffffffffffff021916908373ffffffffffffffffffffffffffffffffffffffff1602179055505b60008060009054906101000a900473ffffffffffffffffffffffffffffffffffffffff1673ffffffffffffffffffffffffffffffffffffffff16632ef3accc86856040518363ffffffff1660e01b81526004018080602001838152602001828103825284818151815260200191508051906020019080838360005b83811015612e11578082015181840152602081019050612df6565b50505050905090810190601f168015612e3e5780820380516001836020036101000a031916815260200191505b509350505050602060405180830381600087803b158015612e5e57600080fd5b505af1158015612e72573d6000803e3d6000fd5b505050506040513d6020811015612e8857600080fd5b81019080805190602001909291905050509050823a02670de0b6b3a764000001811115612ebb576000801b915050613060565b6060612ec685613081565b90506000809054906101000a900473ffffffffffffffffffffffffffffffffffffffff1673ffffffffffffffffffffffffffffffffffffffff1663c55c1cb68360008985896040518663ffffffff1660e01b8152600401808581526020018060200180602001848152602001838103835286818151815260200191508051906020019080838360005b83811015612f6a578082015181840152602081019050612f4f565b50505050905090810190601f168015612f975780820380516001836020036101000a031916815260200191505b50838103825285818151815260200191508051906020019080838360005b83811015612fd0578082015181840152602081019050612fb5565b50505050905090810190601f168015612ffd5780820380516001836020036101000a031916815260200191505b5096505050505050506020604051808303818588803b15801561301f57600080fd5b505af1158015613033573d6000803e3d6000fd5b50505050506040513d602081101561304a57600080fd5b8101908080519060200190929190505050925050505b9392505050565b806002908051906020019061307d9291906134ef565b5050565b606061308b613101565b61309361356f565b61309f8161040061310d565b6130a881613157565b60008090505b83518110156130ea576130dd8482815181106130c657fe5b60200260200101518361316590919063ffffffff16565b80806001019150506130ae565b506130f48161318a565b8060000151915050919050565b60405180590338823950565b600081905060006020828161311e57fe5b0614613137576020818161312e57fe5b06602003810190505b808360200181815250506040518084526000815281810160405250505050565b613162816004613198565b50565b61317282600283516131b9565b61318581836132f990919063ffffffff16565b505050565b613195816007613198565b50565b6131b5601f60058360ff16901b17836133a490919063ffffffff16565b5050565b601781116131e5576131e08160058460ff16901b60ff1617846133a490919063ffffffff16565b6132f4565b60ff81116132265761320a601860058460ff16901b17846133a490919063ffffffff16565b613220816001856133e49092919063ffffffff16565b506132f3565b61ffff81116132685761324c601960058460ff16901b17846133a490919063ffffffff16565b613262816002856133e49092919063ffffffff16565b506132f2565b63ffffffff81116132ac57613290601a60058460ff16901b17846133a490919063ffffffff16565b6132a6816004856133e49092919063ffffffff16565b506132f1565b67ffffffffffffffff81116132f0576132d8601b60058460ff16901b17846133a490919063ffffffff16565b6132ee816008856133e49092919063ffffffff16565b505b5b5b5b5b505050565b61330161356f565b826020015183600001515183510111156133315761333083600261332a8660200151865161344b565b02613467565b5b60008060008451905085518051602081830101945086518101825260208701935050505b602081106133785781518352602083019250602082019150602081039050613355565b60006001826020036101000a039050801983511681855116818117865250508694505050505092915050565b816020015160018360000151510111156133ca576133c9826002846020015102613467565b5b815180516020818301018381536001820183525050505050565b6133ec61356f565b83602001518460000151518301111561341a5761341984600261341387602001518661344b565b02613467565b5b60006001836101000a0390508451805184818301018684198251161781528582018352505050849150509392505050565b60008183111561345d57829050613461565b8190505b92915050565b60608260000151905061347a838361310d565b61348483826132f9565b50505050565b6040518060800160405280600073ffffffffffffffffffffffffffffffffffffffff1681526020016000815260200160008152602001600081525090565b60405180608001604052806004905b60608152602001906001900390816134d75790505090565b828054600181600116156101000203166002900490600052602060002090601f016020900481019282601f1061353057805160ff191683800117855561355e565b8280016001018555821561355e579182015b8281111561355d578251825591602001919060010190613542565b5b50905061356b9190613589565b5090565b604051806040016040528060608152602001600081525090565b6135ab91905b808211156135a757600081600090555060010161358f565b5090565b9056fe536166654d6174683a206d756c7469706c69636174696f6e206f766572666c6f774d6573736167652073656e742e2057616974696e6720666f7220616e20616e737765722e2e2ea265627a7a72315820d6aa43c74330e00ebf248dd8fd4040f2629147feceda8d684f0a25f55052d8f464736f6c63430005100032",
  "source": "import \"./provableAPI_0.5.sol\";\nimport \"./SafeMath.sol\";\n\npragma solidity =0.5.16;\n\ncontract Coinflip is usingProvable {\n    \n    using SafeMath for uint;\n    \n    struct Bet {\n        address playerAddress;\n        uint betValue;\n        uint headsTails;\n        uint setRandomPrice;\n    }\n    \n    mapping(address => uint) private playerWinnings;\n    mapping (address => Bet) private waiting;\n    mapping (bytes32 => address) private afterWaiting;\n    \n    event logNewProvableQuery(string description);\n    event sentQueryId(address caller, bytes32 indexed queryId);\n    event callbackReceived(bytes32 indexed queryId, string description, uint256 amount);\n    event userWithdrawal(address indexed caller, uint256 amount);\n\n    uint public contractBalance;\n    uint256 constant NUM_RANDOM_BYTES_REQUESTED = 1;\n    \n    address payable public owner = msg.sender;\n\n    \n    constructor() public payable{\n        owner = msg.sender;\n        contractBalance = msg.value;\n    }\n    \n    \n    modifier onlyOwner() {\n        require(owner == msg.sender);\n        _;\n    }\n    \nfunction flip(uint256 oneZero) public payable {\n        require(contractBalance > msg.value, \"We don't have enough funds\");\n\n        //get price from provable\n        uint256 randomPrice = provable_getPrice(\"Random\");\n        \n        //Calling provable library function\n        uint256 QUERY_EXECUTION_DELAY = 0;\n        uint256 GAS_FOR_CALLBACK = 200000;\n        bytes32 queryId = provable_newRandomDSQuery(\n            QUERY_EXECUTION_DELAY,\n            NUM_RANDOM_BYTES_REQUESTED,\n            GAS_FOR_CALLBACK\n            );\n        emit logNewProvableQuery(\"Message sent. Waiting for an answer...\");\n        emit sentQueryId(msg.sender, queryId);\n\n        afterWaiting[queryId] = msg.sender;\n\n\n        //Adding user to mapping with address, bet, and queryID\n        Bet memory newBetter;\n        newBetter.playerAddress = msg.sender;\n        //subtract price for callback\n        newBetter.betValue = msg.value; \n        newBetter.headsTails = oneZero;\n        newBetter.setRandomPrice = randomPrice;\n\n        waiting[msg.sender] = newBetter;\n    }\n    \n    function __callback(bytes32 _queryId, string memory _result /*bytes memory _proof*/) public {\n        require(msg.sender == provable_cbAddress());\n        \n        uint256 flipResult = SafeMath.mod(uint256(keccak256(abi.encodePacked(_result))), 2);\n\n        //linking new mapping with new struct\n        address _player = afterWaiting[_queryId];\n        \n        Bet memory postBet = waiting[_player];\n        \n        if(postBet.betValue == 0){\n            //for first free provable call^\n        } else {\n            if(flipResult == postBet.headsTails){\n                //winner\n                uint winAmount = SafeMath.sub(SafeMath.mul(postBet.betValue, 2), SafeMath.add(postBet.setRandomPrice, tx.gasprice)); \n                contractBalance = SafeMath.sub(contractBalance, SafeMath.add(postBet.betValue, tx.gasprice));\n                playerWinnings[_player] = SafeMath.add(playerWinnings[_player], winAmount);\n                emit callbackReceived(_queryId, \"Winner\", postBet.betValue);\n            } else {\n                //loser\n                contractBalance = SafeMath.sub(SafeMath.add(contractBalance, postBet.betValue), (SafeMath.add(postBet.setRandomPrice, tx.gasprice))); \n                emit callbackReceived(_queryId, \"Loser\", postBet.betValue);\n            }\n        }\n    }\n    \n    \n    function withdrawUserWinnings() public {\n        require(playerWinnings[msg.sender] > 0, \"No funds to withdraw\");\n        uint toTransfer = playerWinnings[msg.sender];\n        playerWinnings[msg.sender] = 0;\n        msg.sender.transfer(toTransfer);\n        emit userWithdrawal(msg.sender, toTransfer);\n    }\n    \n    function getWinningsBalance() public view returns(uint){\n        return playerWinnings[msg.sender];\n    }\n    \n    //Owner functions\n    \n    function fundContract() public payable onlyOwner {\n        contractBalance = SafeMath.add(contractBalance, msg.value);\n    }\n    \n    function fundWinnings() public payable onlyOwner {\n        playerWinnings[msg.sender] = SafeMath.add(playerWinnings[msg.sender], msg.value);\n    }\n    \n    function withdrawAll() public onlyOwner {\n        uint toTransfer = contractBalance;\n        contractBalance = 0;\n        msg.sender.transfer(toTransfer);\n    }\n\n}",
  "sourcePath": "/Users/andrewfleming/Documents/ethereum-course-advanced/project-coinflip-v-6/contracts/Coinflip.sol",
  "compiler": {
    "name": "solc",
    "version": "0.5.16+commit.9c3226ce.Emscripten.clang"
  },
  "schemaVersion": "3.2.5",
  "updatedAt": "2020-10-20T07:38:37.274Z",
  "networkType": "ethereum",
  "devdoc": {
    "methods": {}
  },
  "userdoc": {
    "methods": {}
  }
}